:020000041008E2
:4000000000780408EB0208100D00000051030810510308105103081051030810000000000000000000000000000000004D0308104D030810000000004D0308104D030810DA
:400040004D0308104D0308104D0308104D0308104D0308104D0308104D0308104D0308104D0308104D0308104D0308104D0308104D0308104D0308104D0308104D03081000
:400080004D0308104D0308104D0308104D0308104D0308104D0308104D0308104D0308104D0308104D0308104D0308104D0308104D0308104D0308104D0308104D030810C0
:4000C0004D0308104D0308104D0308104D0308104D0308104D0308104D0308104D0308104D0308104D0308104D0308104D0308104D0308104D0308104D0308104D03081080
:400100004D0308104D0308104D0308104D0308104D0308104D0308104D0308104D0308104D0308104D0308104D0308104D0308104D0308104D0308104D0308104D0308103F
:400140004D0308104D0308104D0308104D0308104D0308104D0308104D0308104D0308104D0308104D0308104D0308104D0308104D0308104D0308104D0308104D030810FF
:400180004D0308104D0308104D0308104D0308104D0308104D0308104D0308104D0308104D0308104D0308104D0308104D0308104D0308104D0308104D0308104D030810BF
:4001C0004D0308104D0308104D0308104D0308104D0308104D0308104D0308104D0308104D0308104D0308104D0308104D0308104D0308104D0308104D0308104D0308107F
:400200004D0308104D0308104D0308104D0308104D0308104D0308104D0308104D0308104D0308104D0308104D0308104D0308104D0308104D0308104D0308104D0308103E
:400240004D0308104D0308104D0308104D0308104D0308104D0308104D0308104D0308104D0308104D0308104D0308104D0308104D0308104D0308104D0308104D030810FE
:400280004D0308104D0308104D03081010B5054C237833B9044B13B10448AFF300800123237010BDF449020800000000B82F0810084B10B51BB108490848AFF30080084827
:4002C000036803B910BD074B002BFBD0BDE81040184700BF00000000F8490208B82F0810C0430208000000007047FFF7FDFF72B6104C114DAC4209DA21686268A368043B5F
:40030000A2BFC858D050FAE70C34F3E70B490C4A00209142BCBF41F8040BFAE709480A490860BFF34F8F00F0E5F900F0BFF900F077F8FEE7BC2F0810D42F0810F449020825
:40034000A44E02080040020808ED00E0FEE7FEE700B504207146084202D0EFF3098001E0EFF30880043002F0E9F9FEE708B50249024802F011F808BD544E020800006340E8
:4003800038B50138032837D8DFE800F00209101D02221A4B5A600822803B5A6038BD0222164B9A600822803B9A6038BD00F03CFB10B313480123437080F804310223037162
:4003C00000F046FB38BD00F02FFBA8B10C4C0125657000F035FB90F8043184F80431257100F02EFB94F80421013A411D601D02F031FB204600F02CFB38BD00BF80033240C9
:400400008C42020850B108B590F804212AB14278012A02D10079FFF7B3FF08BD704700BF38B5304C304A3149204601F099FB304A3049204601F0A2FC2F4C3049204602F00E
:400440000FF9B4F90030002B08DB590903F01F03012202FA03F32A4A42F82130214A136843F00043136062B600222649012000F0B1FE00F039FB00F059F900F05FF900F028
:400480006FF900F077F902221F4B5A600822803B5A6000F07FF900221146104600F04CFB00F0C8FA18B100F0CBFAFFF7ABFF00F05BF9054600240CE015F0010100D0552163
:4004C00000231A46204600F023FBC5F347050134E4B2062CF0D900F047FB322002F0FAF8DEE700BF00006340544E0208542B081015287F00801A0600442B08106D030810FE
:4005000000E100E0090A08108003324008B5012000F0E6FE08BD00BF704700BF5C4AD2F8803303F00F0303F1D00152F8212002F00702032A04D0042A05D092B9554914E0DA
:40054000554A116811E003F1C002514951F8222002F01F02112A06D0132A04D04FF4FA4103E04E4901E04FF400418BBB484BD3F8902502F00100D3F88825C2F30172D3F84E
:40058000883513F0405F07D0414BD3F88835C3F30173012B02D102E0012300E0002303B108B9032A46D13A48D0F88025C2F31103D0F88425C2F30C02D0F88005C0F30060BA
:4005C0000130B1FBF2F202FB03F2B2FBF0F131E0012B2FD12E4BD3F8402602F00100D3F80026C2F30172D3F8003613F0405F07D0274BD3F80036C3F30173012B02D102E0CF
:40060000012300E0002303B108B9032A12D12048D0F8002602F07F02D0F80036C3F30423D0F80006C0F3044002FB01F2B2FBF3F2B2FBF0F1164BD3F88033C3F3011321FAD1
:4006400003F215494A601648D0F89030C3F3072301330069000E0130B2FBF0F08860B2FBF3F3CB600B6103F5742202F23F220D48A0FB0202C2F387420A7503F2E7330A4A05
:40068000A2FB03239B098B61DB03CB61704700BF0000264000127A009443020800366E010000214083DE1B43D34D621008B50D4802F0CAF9FFF730FFFFF730FF00221146B3
:4006C000042000F0D5FB084800F068FC074B1B6893F8513013B1064800F0D0FC00F012FB08BD00BF002F0810104A0208A04E0208B82A081008B502F07CF8074AD2F88830AF
:4007000043F47003C2F88830BFF34F8FBFF36F8F02F073F808BD00BF00ED00E0024A136801331360704700BF904B020808B500F0B9F8642000F0FAF808BD00BF10B5064C87
:40074000064A0021204602F0C9F80123A3600022C4F80C21A36110BD00003840682B081008B500F045F908BD08B500F0FBF800F07F0008BD08B502F059F84FF4FA51012096
:4007800002F07CF80249002002F09AF808BD00BF1D070810014B1868704700BF904B020830B585B005460C460D490E4801F0CEFB10F4803FF8D10C4B1D725C725F228DF89A
:4007C0000020083301930223029300238DF80C30034A6946034801F073FC05B030BD00BF544E020800006340944B020810B584B004461649164801F0A9FB10F4803FF8D10B
:40080000144B03F80C4F5F228DF800200193012302938DF80C300D4A69460D4801F050FC0A490B4801F092FB10F4803FF8D10123029300238DF80C30044A6946044801F0B0
:4008400087FB044B187B04B010BD00BF544E020800006340944B020808B50020FFF7C6FF40F01001C9B20020FFF79AFF08BD00BF10B50020FFF7BAFF6FF3041040F02004B7
:40088000E1B20020FFF78CFF14F0800F08D0012001F020FF44F08001C9B20020FFF780FF10BD00BF00B587B000238DF814308DF815305F228DF8042005AA0292022203924F
:4008C0008DF81030034A01A9034801F0F9FB07B05DF804FB544E02080000634010B50446FFF7BAFF2146FE20FFF75AFFFFF7C0FF10BD00BF00B583B00B4BB3FBF0F049F6D4
:40090000652240F2692180B200F016F8FF230093032349F6652240F2692180B200F014F8C0B203B05DF804FB40420F0008B5FFF7E1FFFFF7D3FF08BD884203DB904202DD36
:40094000104670470846704710B4401A019CE41A04FB00F0521A90FBF2F018445DF8044B704700BF10B584B00C490D4801F0EEFA10F4803FF8D125238DF80030094C01947F
:400980000123029300238DF80C30044A6946044801F0DEFA207804B010BD00BF544E020800006340A44B020810B584B004460D490D4801F0CBFA10F4803FF8D10B4B03F8E7
:4009C000044F25228DF8002001930123029300238DF80C30034A6946034801F071FB04B010BD00BF544E020800006340A44B020808B5FF20FFF7D8FF08BD00BF0122014BBF
:400A00001A707047B443020858B110B50146054C4FF48472204602F01DF8012384F8083110BD7047AC4B0208014B1878704700BFB4430208014B93F808017047AC4B02081F
:400A40000248002380F80831704700BFAC4B020808B5054B02460121002000F069FBB0FA80F0400908BD00BFFD09081030B4090241EA00400243172100240FE022FA01F5F5
:400A800015F0010F04D0601C06251D5584B203E0601C04251D5584B2013909B20029EDDA30BC704770B505460E4601220B490C4800F088FC05B126B940F2E651094801F003
:400AC0002DFE074C32462946204600F07BFC01220249204600F076FC70BD00BFB84C020800006740EC2A081008B500220649074801F05EFC024620B904490B6843F00043A0
:400B00000B60104608BD00BFCC2B0810000067400B280ED8F8B51F4616460D4600EB4004E300044A13443A4631462846FFF79EFFF8BD7047BC4C0208F8B507460E4615460A
:400B400000240BE004EB4402D300064A13442A4631463846FFF78AFF0134A4B20B2CF1D9F8BD00BFBC4C020808B54FF490710248FFF798FF08BD00BFBC4C02081F4B98420F
:400B80002DD00CD840282ED003D8E8B1102828D02FE0802829D0B0F5807F28D029E0184B984228D006D8B0F1204F0DD0154B984212D01EE0144B98420AD00133984209D0E1
:400BC000023B984215D101E0002070470F4870470F4870470F4870474FF4A0007047074870470D4870470D4870470D487047034870470C4870474FF4A4007047060052004F
:400C0000010000F0090000A0040000F0010052000200520003005200010050000200500005005200FF00520038B5124B1B6893F83130012B04D840F2C3110F4801F06EFD65
:400C40000C4B1D682A6AB5F8B03013442C46D5F8B420D358002B0BDB084B1868FFF78EFF6B6801229A6063689B68002BFBD138BD034838BDA04E0208002C0810DC4D020822
:400C8000020050001A4B186128B102230370FF23437000234380174B1B6893F850202AB300B583B0B3F93830ADF80030002301931149684601F0D4FCBDF90030002B08DBD6
:400CC000590903F01F03012202FA03F30B4A42F82130084B1B6893F8513023B102220849012000F077FA03B05DF804FB704700BFDC4D0208A04E02083144020800E100E0F3
:400D0000E944020808B50248FFF7BCFF08BD00BFF04D020838B50B4B1B68D3F8B4301B58002B0DDA0D4604460B0C1B0423B140F2D521054801F0F2FCA9B26160002038BDD3
:400D4000024838BDA04E0208402C081001008A0038B50368002B01DA002300E0094B73B90D460446C2600B0C1B0423B140F2BB21054801F0D3FCA9B2A160002038BD0148AE
:400D800038BD00BF01008A00402C081038B504460D4619B99921084801F0C0FC074B1B68D3F8B4301B59002B03DAE3682B60002038BD034838BD00BF802C0810A04E0208B7
:400DC00001008A00254B1B6893F8313083423AD900293AD00B6813F01F0F38D170B50D4604461E4B1B6893F83130984204D340F2C3111B4801F092FC184B1B68186AB3F88B
:400E0000B03004FB0304174E34602A68D2080021686801F02AFE00212046FFF77BFF346825B940F293310E4801F078FC2A4600212046FFF78DFF60B900210A4B1868FFF7BD
:400E400069FF40B970BD084870470748704706487047064870BD054870BD00BFA04E0208402C0810F44D020803018A0001018A0010B504461346B2B9A9B9124B1B6893F89D
:400E80003130984204D340F2C3110F4801F046FC0C4B1B681A6AB3F8B03004FB03240B4B1C60002010BD43B149B1084A51609360111D2046FFF786FF10BD054810BD04489C
:400EC00010BD00BFA04E0208402C0810F44D020803018A002DE9F0411B4B1B68DC68236883422CD90D464609A0EB4610012303FA00F819B901F07DFC074600E00027124BBF
:400F000018680368002B01DA002300E00F4B83B9626852F8263018EA030F05D023EA080342F82630002400E0094C0021FFF7F2FE00E0084C25B9384601F05FFC00E0064CBE
:400F40002046BDE8F08100BFF44D020801008A00020188000301880004018A000B4B1B68DB681A6882420CD94109A0EB4110012202FA00F05B6853F82130184203D0044866
:400F80007047044870470448704700BFF44D02080101880004018A0000018800024B1B680BB9014B18607047004E02082DE9F8430446884691461D46089F2C4B1B681BB949
:400FC000B5212B4801F0AAFB284B1B682C2000FB04F01C18EEB21E50C5F3072363602D0CA560244B1B6893F831309E4204D340F2C311214801F092FB1E4B1B68196AB3F820
:40100000B02006FB02162661666893F832309E4204D340F2DF11184801F080FB154B1B681D6A803605EB46156561A668330C1B0423B14FF4FF71104801F070FB330C1B04AA
:4010400023B140F2FF110C4801F068FBB3B243EA0646AE60C4F81C90C4F820800023A36117B1B7F90030A381BDE8F883004E0208C02C0810A04E0208402C0810F0B58FB033
:40108000044618B95221274801F048FBA369072B03D95621234801F041FBE36A1BB95821204801F03BFB236B1BB959211D4801F035FB07AD04F114060FCE0FC537682F60A9
:4010C00002AD26460FCE0FC533682B60164B1B68B3F93620079B1344ADF83030089B0D93A26AE16A0CAD00953B460A98FFF75EFF00210091069B0A460598FFF757FF216BA4
:40110000284601F0ADFABDF93030002B08DB590903F01F03012202FA03F3044A42F821300FB0F0BDC02C0810A04E020800E100E0F8B506460F461D4614461AB9FD211F4894
:4011400001F0ECFA1E4B1B681BB9FE211B4801F0E5FA1B4B1B682C2101FB063001FB07314B68012202FA03F31B04466802FA06F60269EAB18F69EFB91268002A01DA002216
:4011800000E0104AC2B92288134323600369DC6001238B614D620469330C1B0423B140F2BB21094801F0BAFAB2B2A2600020F8BD0648F8BD0648F8BD0548F8BDC02C0810A6
:4011C000004E020801008A00402C081004028A0007028A00F8B505460F4616460E4B1B6823B94FF4AF710D4801F098FA0A4B1B682C2404FB0534236A23B94FF4B17107484C
:4012000001F08CFAE369B34204D9236A43F826700020F8BD0248F8BD004E0208C02C08100A028A0070B582B000230193044620B940F2D111284801F071FA236923B94FF439
:40124000E971254801F06AFA636923B940F2D311214801F063FA236A23B94FF4EA711E4801F05CFA6369DD682A0C20D012041A601B682069194B1B68D3F8B430C358002B7A
:4012800015DA01A9FFF782FD60B9019803681E0CDBB2E269934206D2226A52F8233013B1984700E0002631462069FFF733FDADB275B16369ADB21D601B68636A1BB1984734
:4012C0000023636202E0A36A03B198470023A36163691B6802B070BDC02C0810A04E020810B50446074B1B6823B940F2B111064801F014FA034B1B682C2000FB0430FFF7F0
:4013000091FF10BD004E0208C02C081010B4D0F8003303F00F03072B06D900230DE0D0F84043CC54013300E000239342F7D306E0D0F8404321F8134001339342F8D35DF808
:40134000044B704710B51446D0F80833C3F308039A4200D31C462246FFF7D8FF204610BD10B4D0F8003203F00F03072B06D900230DE0CC5CC0F84042013300E000239342B9
:40138000F7D306E031F81340C0F8404201339342F8D35DF8044B704710B51446036813F4006F01D0802200E04022D0F80832C3F30803D31AA34200D81C462246FFF7D0FFE7
:4013C000204610BDF8B507460D461446D0F8006206F00F060BE0224629463846FFF7DCFF072E01D9430000E003461D44241A002CF1D1F8BD02E0C0F84012013A002AFAD1F4
:40140000704700BF10B51446036813F4006F01D0802200E04022D0F80832C3F30803D31AA34200D81C462246FFF7E4FF204610BD10B5546841F201039C4236D1D0F808339E
:40144000C3F30803DBB1137893B1136A43F040031362D0F8043343F48033C0F80433D0F8043323F48033C0F80433D0F8043306E029B9136A43F040031362D0F84033136A71
:4014800043F020031362136A23F010031362036E23F4204303660023C0F8C83F0123C0F8C03FD0F8C03F202121E0D0F80832C3F30801D0F80832C3F3C0330B44116BC91A15
:4014C0005163116A11F0080F05D1D16A1944D162916ACB1A9362136A43F004031362136A23F0010313620023C0F8883F1021D0F84C4F40F201131C420DD0036823F0004382
:40150000036000238366C366036843F000430360036841F040014FF080535360536C0BB10846984710BD00BFD0F80C3F13F0020F1DD00222C0F8002FD0F8002FD0F8002FEC
:4015400012F0040F02D04FF4001001E04FF480108A6802438A604A68B2F5B81F07D00A7B12B14FF4C01201E04FF4B0124A6013F4807F03D08A6842F400028A6013F0010F68
:4015800003D08A6842F480028A6040F21112134202D04FF4C0134B60704700BF0023C0F8C83FC0F8883F836E23B140F21713C0F8083F704740F21313C0F8083F182383665E
:4015C0004FF4B8134B60704738B5D0F80C4F036E23F4807303660023C0F8C83FC0F8883FC0F8083F40F21713C0F8003FD0F8003F8B6823F480338B604B7B13B18B69CB617B
:401600000BE08D69D0F80822C2F30802D0F80832C3F3C0331344EB1ACB6140F201131C421BD0036E9B0F032B05D114F4827F14BF0123002300E001235BB1036823F0004343
:40164000036000238366C366036843F00043036003684FF080534B601BE00B7893B1D0F8043343F48033C0F80433D0F8043323F48033C0F80433D0F804330123C0F8C03F3A
:40168000D0F8C03F0B7B0BB10B4B01E04FF080534B604A6C72B14B7B13B14FF4802001E04FF400308B6813F0F87301D04FF400231843904738BD00BF0000101070B5054685
:4016C0000C4691F8243013F0FF0F0ED1CB6A63B94B6C0BB108209847E36AB3FA83F35B0984F824300123C5F8883F94F8243013F0FF0F16D063783BB12B6813F4006F01D03C
:40170000802202E0402200E00122FF212846FFF779FE236B18442063236A43F00803236270BDE26A012A11D963780BB1013A00E00122A16A2846FFF72FFE236B03442363AE
:40174000E36A1B1AE362A36A1844A062D5F80832C3F30803802B23D0E36A012B20D101F048F8A36A1B78C5F840324026C5F8806FD5F8803F01F041F8236B01332363002334
:40178000E362A36A0133A362C5F8886F63783BB1236A43F002032362636C0BB10420984770BD00BF38B54B68B3F5A81F03D14FF4C0134B6038BD4B68B3F5A01F4DD10C463C
:4017C00005464A69012A11D94B780BB1013A00E0012221692846FFF7DFFDA3690344A36163691B1A6361236903442361D5F80832C3F30803802B14D06369012B11D100F0BB
:40180000F8FF23691B78C5F840324023C5F8803FD5F8803F00F0F1FFA3690133A361002363616369CBB9237B33B14023C5F8883F4FF4A813636005E00023C5F8883F4FF4A4
:40184000B0136360637843B1A36843F40033A360636C13B14FF48030984738BD70B504460D468A6C82B3036813F4803F06D0D0F84C3F13F0400F03D0022002E0002000E0D1
:401880000020236E13F4006F06D1D4F84C3F13F0800300D001231843C0B190470123C4F8C03FD4F8C03F024648B91023C4F8403FD4F8403F40F2D113C4F8483F07E040F298
:4018C000C113C4F8483F02E0002200E00022D4F8043243F48033C4F80432D4F8043223F48033C4F80432D4F804320AB9012300E00223E366002A59D1666E06F010066B6CED
:4019000023B10EB1012000E0022098477EB141F202036B602B6A43F001032B626B6B2B63002385F824300123C4F8883F70BD41F201036B602B6A43F010032B620123C4F811
:40194000C83F2B78BBB1EB6BBBB1236E43F400532366ED6B802D05D9A5F18003802B0ED8813D0DE0013D236E43F4004323660023C4F8C83F04E0002502E0002500E03F25A7
:40198000236813F4006F01D0802300E040239D4204D34FF42371064800F0C0FED4F8043323F0FF03EDB21D43C4F8045370BD00BF002D081038B54B68B3F5881F03D0B3F521
:4019C000901F1AD038BD0B69D0F840231A708B6901338B614B69013B4B612BB10B6901330B610423836638BD0B7B13B14FF4C01301E04FF4B0134B6038BD0C4605464A6954
:401A00000969FFF79FFCA3690344A36163691B1A6361226910442061012B24D82B6E23F480732B666369012B16D12B6813F4006F01D0802300E0402323B94FF42371184819
:401A400000F06CFED5F8043323F0FF03C5F804334FF48813636038BD0023C5F8C83F4FF4B013636038BD402B01D89C1E00E03F242B6813F4006F01D0802300E040239C42E5
:401A800004D34FF42371064800F048FED5F8043323F0FF02E3B21343C5F8043338BD00BF002D081038B5CB6B002B50D00B78002B3FD00C460546D0F80423D2B20132896BA2
:401AC000FFF740FC236C03442364E36B1B1AE363A26B1044A063802B06D9A3F18002802A0FD8A3F181040DE02B6E43F400432B66E36B0BB15C1E00E000240023C5F8C83FE0
:401B000000E03F242B6813F4006F01D0802300E040239C4204D34FF42371104800F0FEFDD5F8043323F0FF02E3B21343C5F8043338BD0123C3668A6B0B6CD0F84003D054FF
:401B40000B6C01330B64CB6B013BCB6338BD0223C3660023C0F8C83F38BD00BF002D0810F8B50B78012B03D00C7A1CB9002702E0002700E00127002800F0A780002900F073
:401B8000A680002A00F0A58016460C460546013BDBB2022B03D950214F4800F0BFFD637803B163791BB151214B4800F0B7FD94F90330002B03DA5221474800F0AFFD23795F
:401BC00013F0010F03D05321434800F0A7FD2369102B03D95421404800F0A0FDE368102B03D955213C4800F099FD637913B14FF4803100E00021E27912B14FF4807300E094
:401C000000230B4343F400632B60A37913B94FF4006300E000232269013A02F00F021A43E368013B1B01DBB21343227843EA82732B6617B140F2073301E040F20713C5F866
:401C400000330FB1254B00E0254B2B6763780BB17F2300E00023C5F80433E3785B00DBB2227943EA0243C5F810331E4BC5F80032A3780BB1402300E00123C5F804320023F3
:401C8000C5F8C83EC5F8883EC5F8C83FC5F8883FC5F8083F2378022B02D040F2D11300E00023C5F8483F63783370A37873704FF0805373600020B060B06130623064F06380
:401CC0003063F0627064B064F8BD0748F8BD0648F8BD0548F8BD00BF442D081003002A0013102A00070101000120AA0038B505460C4621B94FF43171194800F00FFD2B6E84
:401D00009B0F012B17D1174B2344174A93421ED9A4F5BD13A3F5D66302F5611202F56162934216D9A4F57104A4F533440F4B9C4211D80F4838BD84B1286EC0F303102B6E18
:401D400003F00F0318440230B4FBF0F038BD094838BD094838BD002038BD002038BD00BF442D081020AD88FF405B730040555C0440420F00801A0600A08601002DE9F8434E
:401D800007468846914622B940F21321624800F0C5FC08F1FF34614B9C4204D94FF405715D4800F0BBFC3B6E9B0F012B0DD149463846FFF79BFF0546D7F8003323F400732C
:401DC000C7F80033564B3B67A2E0544B9C421FD8544B984509D8A9F5BD13A3F5D663524A934218D90021012328E0504B984507D84F4B4B444F4A934213D9002101231DE051
:401E00004D4B4B444D4A934212D90021012315E00021012312E0002141F288352E460B460CE000214FF461754FF4C8660B4605E001214FF4BE754FF41B760023002B66D11F
:401E40003F4BB3FBF9F3B6FBF3F404FB03F2964200D90134102C00D910240F2C8CBF00220122B5FBF3F606FB03F39D4200D90136102E00D91026A519B9FBF5F50FE022B1CE
:401E80000F2C09D80134002206E00F2E04D801360F2C8CBF00220122A519B9FBF5F5454502D9A3191F2BEAD941B1D7F8003343F40073C7F80033234B3B6707E0D7F800339B
:401EC00023F40073C7F80033154B3B67E31F092B04D940F28D511C4800F020FC3B6E23F0F003013C2401E4B223433B66731F0B2B04D940F2AA51144800F010FC3B6E23F03D
:401F00000F03013E06F00F061E433E6600E000252846BDE8F88300BF442D08103F420F0013102A00A0860100502D1900801A060020AD88FFA0432100807E25FFC02BAF0017
:401F400000CA9A3B03002A00842D08108868704770B5044615460E4621B940F2D441554800F0DCFB73680BB1B36823B940F2D541504800F0D3FB96F90030002B04DA40F25C
:401F8000D6414C4800F0CAFB0023C4F8483F6B6813F0805F00F0888033785B00DBB243F001034FF48032AA6072682A61B2686A610022AA61EA61327B2A7301226A7340F2A7
:401FC0001712C4F8002FD4F8002FD4F8042242F48032C4F80422D4F8042222F48032C4F80422D4F804226A68B2F1805F04D1C4F840320223A36609E0626E12F0200F01D048
:40200000092200E00122A266C4F840322B7843B32B7B33BB6B69012B23D9236E43F4807323666E69802E01D8023E00E03F26236813F4006F01D0802300E040239E4204D37D
:402040004FF423711C4800F069FBD4F8043323F0FF03F6B21E43C4F804634FF490136B6015E0236813F4006F01D0802300E0402323B94FF42371104800F050FBD4F80433E6
:4020800023F0FF03C4F804334FF488136B6000F0B0FB0123C4F8C83F40F21313C4F8083F00F0ABFB002000E0044840F2D113C4F8483F70BD442D0810002D08100220AA0090
:4020C000F8B5044615460E4621B94FF4B7614B4800F024FBB36833B1736823B940F2B951464800F01BFB96F90030002B04DA40F2BA51424800F012FB0023C4F8483F6B6818
:4021000013F0805F73D037787F00FFB24FF48033AB6073682B61B3686B610023AB61EB61327B2A736B7340F21713C4F8003FD4F8003FD4F8043243F48033C4F80432D4F89D
:40214000043223F48033C4F80432D4F804326B68B3F1805F09D1C4F840724023C4F8803FD4F8803F0223A36617E0636E13F0200F01D0092300E00123A3666B695BB900F05A
:4021800038FBC4F840724023C4F8803FD4F8803F00F033FB01E0C4F840724FF4A0136B606B780BB1402500E00125236813F4006F01D0802300E040239D4204D34FF43D717E
:4021C0000F4800F0ABFAD4F8043223F0FF032B43C4F8043200F00DFB0123C4F8883F40F21313C4F8083F00F008FB002000E0054840F2D113C4F8483FF8BD00BF442D0810EC
:40220000002D08100220AA00F8B504460E46D0F88C3E13F0010F07D04FF480534B600123C0F8803ED0F8803ED4F84C5F40F201131D420FD0336A15F4807F02D04FF480723E
:4022400000E08022134333620023C4F8C83F45F010050EE015F0100F0BD0D4F80833C3F3080333B1F36B23B10123C4F8C43FC4F8C83FD4F8CC3F13F0010F17D0236813F4ED
:40228000803F07D0062000F03DFAD4F84C7FC7F3801700E0002757B931462046FFF702FC0123C4F8C03FD4F8C03F00E0002715F0100F0BD0324639462046FFF7B9F8102384
:4022C000C4F8403FD4F8403FD4F84C5F15F0C00F0DD031462046FFF7C1FA0123C4F8803ED4F8803EC023C4F8403FD4F8403FD4F88C3F13F0410F08D031462046FFF7DEF9A5
:402300000123C4F8803FD4F8803FF8BD70B506460D46D0F8004E14F0020F0AD0836E2BB1002383668B6843F080738B604FF4C0136B6014F0010F05D029463046FFF7F4F887
:4023400024F0040414F0080F08D029463046FFF731FB0123C6F8C03FD6F8C03F14F0040F08D029463046FFF71DFA0123C6F8803FD6F8803F6B68B3F5C01F03D12946304677
:40238000FFF722F96B68B3F5B01F03D129463046FFF704F970BD00BF08B54B6813F4801F02D0FFF7B3FF08BDFFF72EFF08BD00BF002800F02481F8B50546002900F02181BE
:4023C00017460C460B78012B03D93F218F4800F0A5F96378012B07D9052B05D0022B03D040218A4800F09AF9A378032B03D94121864800F093F92378012B07D16368023BC4
:402400000E2B03D94321814800F088F9A36933F00F0303D044217D4800F080F9A368043B0C2B03D94521794800F078F9E368043B0C2B03D94621754800F070F96378022B3B
:4024400007D0A268E3689A4203D047216F4800F065F9636A33F06D0303D049216B4800F05DF9E36A33F0730303D04A21674800F055F9236B33F4206303D04B21634800F05B
:402480004DF96378A678052B07D8DFE803F0060305060603022600E00026A368082B04D8E368082B03D9002302E0002300E0012313B14FF4006200E00022237F13B14FF415
:4024C000807300E000231A436368013B03F00F03134343F080732B60226A2B6813F4006F01D0802300E040239A4203D35821474800F014F9A26A2B6813F4006F01D08023EA
:4025000000E040239A4203D35921404800F006F9237D0BB9012100E000216278052A01D1022300E000230B43E17C09B1102100E000210B43617C09B1202100E000210B431F
:402540002178012902D14FF0004100E000210B43B60006F00C063343A169090201F470610B43120602F0407213432B62237C13B14FF4807200E00022A37C13B14FF40073C7
:4025800000E000231A43A368013B03F00F031343C5F8003394F82030C5F80433237C13B14FF4807200E00022E368013B03F00F031343C5F8003294F82830C5F80432636A4A
:4025C00003F06D03C5F8C83FE36A03F07303C5F8883F236B03F40073C5F8003F236B03F40063C5F8403F0023C5F8C83E5FB118463B60BB61FB60FB61054B3B62F8BD0548B1
:4026000070470448F8BD0020F8BD00BFC42D0810EFCDAB000140AA0038B50D4B9A680D4B9A420FD10D46044621B940F237110A4800F074F804F11003064A52F8230042F8FA
:40264000235038BD1030054B53F8200038BD00BF00ED00E000400208042E08100000081048B338B504460D464368072B03D93221134800F053F8B4F900306268002B08DBEE
:402680005201D2B203F1604303F5614383F8002305E003F00F035201D2B20A49CA540A4B9A680A4B9A4208D12946B4F90000FFF7B3FF002038BD06487047002038BD00BF2D
:4026C000042E081014ED00E000ED00E0004002080100560010B5044605E0084B186800F07FF8A4F50044B4F5004FF6D8044B186800FB04F000F074F810BD00BFB0430208CD
:40270000AC43020808B5034B1B7800FB03F000F067F808BDA843020801BEFEE738B50D46044C18220146204600F0A7F9A5610020FFF7F2FF60490208FEE700BF08B50268D5
:40274000254BDA6142681A6282685A62C2689A620269DA6242691A6382695A63C2699A631E4A916AD963D16A1964516A5964516B9964926BDA64F1EE103A13F0900F27D098
:40278000026A154B1A65426A5A65826A9A65C26ADA65026B1A66426B5A66826B9A66C26BDA66026C1A67426C5A67826C9A67C26CDA67026DC3F88020426DC3F88420826DD6
:4027C000C3F88820C26DC3F88C20026EC3F89020FFF7B2FF08BD00BF6049020800ED00E00230800803D001300238FCD100BF00BF7047EFF3108072B6704780F3108870474D
:40280000084B1B6813F4803F07D17047064B53F8243003B19847013401E010B50024042CF4D910BD10E000E0404E0208044B1A6842F002021A601A6842F001021A60704750
:4028400010E000E0042805D10A4A136843F0040313607047084B1B681A68D3F8A030000600F04070D050034A136823F004031360704700BF10E000E0A04E020810B50C46F0
:40288000002304E000210A4A42F823100133042BF8D9084A084BDA63FFF7D4FF24F07F44064B5C6000229A60FFF7C0FF10BD00BF404E0208012808100040020810E000E01C
:4028C0000346042805D8044A52F8200042F8231070470020704700BF404E0208002800F0AC8070B40446002A00F0A98092F828300BB1012500E00025137F0BB1022300E06B
:4029000000231D431669B60406F4802645EA060395682D0405F440351D431668300600F0E0602843136B556B43EA45031B0503F440130343906B43EA8000052E03D1D3686B
:402940001B029BB202E053681B029BB20343081D800123501368062B08D104EB81130120C3F808013F20C3F828011DE0936843B904EB81130020C3F808013120C3F82801C7
:4029800012E0012B08D1506904EB8113C3F808011C20C3F8280107E004EB81130120C3F808011220C3F82801106A04EB8113C3F80C01506AC3F810015069C3F814019069CE
:4029C000C3F81801136EB3F1FF3F17D0106C00F00F00966C360206F470663043156D2D0405F470250543906D000380B228431B01DBB2034304EB8110C0F82031D36B03F0F2
:402A00000303566C360106F030063343D56C2D0205F440752B43506D8001C0B21843D36D9B0003F00C03034304EB8114C4F82431D36AC4F83831002002E0024870470148F8
:402A400070BC70470100B600014B1860704700BFA04E020810B5431E0A44914204D011F8014B03F8014FF8E710BD02440346934202D003F8011BFAE7704710B5034642B13D
:402A800011F8014B03F8014B013A002CF7D11A4400E010BD934202D003F8014BFAE710BDF8B500BFF8BC08BC9E467047F8B500BFF8BC08BC9E4670470300000001000000A2
:402AC000010000000000000005036000040000000100000000000000010000000604600008000000704B02080D05081047656E6572617465645F536F757263655C50536F39
:402B000043365C70646C5C647269766572732F7065726970686572616C2F7363622F63795F7363625F7370692E6800008A000000070000002F000000070000002E0000008B
:402B4000070000002B000000070000002A0000000700000002000000000000000000000000000000000000000400000000000000000000000000000000000000CC0C00000D
:402B800000800000000000006606000000400000000000000000000000000000000000000200000003000000FFFFFFFF03000000FFFFFFFF03000000FFFFFFFF03000000E7
:402BC000FFFFFFFF03000000FFFFFFFF01000000020000000800000008000000010000000000000000000000000000000000000000000000000000000000000000000000C6
:402C000047656E6572617465645F536F757263655C50536F43365C70646C5C647269766572732F7065726970686572616C2F6970632F63795F6970635F6472762E680000AA
:402C400047656E6572617465645F536F757263655C50536F43365C70646C5C647269766572735C7065726970686572616C5C6970635C63795F6970635F6472762E680000E3
:402C800047656E6572617465645F536F757263655C50536F43365C70646C5C647269766572735C7065726970686572616C5C6970635C63795F6970635F6472762E630000A8
:402CC00047656E6572617465645F536F757263655C50536F43365C70646C5C647269766572735C7065726970686572616C5C6970635C63795F6970635F706970652E630006
:402D000047656E6572617465645F536F757263655C50536F43365C70646C5C647269766572735C7065726970686572616C5C7363625C63795F7363625F636F6D6D6F6E2E55
:402D40006800000047656E6572617465645F536F757263655C50536F43365C70646C5C647269766572735C7065726970686572616C5C7363625C63795F7363625F69326366
:402D80002E63000047656E6572617465645F536F757263655C50536F43365C70646C5C647269766572735C7065726970686572616C5C7363625C63795F7363625F693263FD
:402DC0002E68000047656E6572617465645F536F757263655C50536F43365C70646C5C647269766572735C7065726970686572616C5C7363625C63795F7363625F7370696A
:402E00002E63000047656E6572617465645F536F757263655C50536F43365C70646C5C647269766572735C7065726970686572616C5C737973696E745C63795F73797369D7
:402E40006E742E63000000000000204000002440000000400000000000002340000030400000314000009F40000022400000104002020202020202020210101D8000170020
:402E80007500FF030602063604102000000000007FC0000000040000000000000019324B647D00804000080B100000000000FF012002001F00800004FF081018001000146E
:402EC0000018001C4044484C50000000081000000800000004000000041000000012000004210000002100000016000040114002C41300138013A013200000001C00000091
:402F00000000214000002540000001400000344000002440000031400000324000001F410000234000001140010101010101010101101010800019005500F0000501053B5E
:402F400004101C01010000000FC000000004000001010101011D3A57789600082000101208000000001F00000010000F002000023F06080E00080009000A000B24282C30B0
:402F800034000000100000009000000088000000080000008000000004F0000000F00000400200002005A000D00100018001A0012000000010000000000000000000081006
:402FC000004002088C020000DC2F08108C420208D4060000F4490208B0040000010060000000000000000000000000000000000000000000000000000000000000000000C8
:403000000000000000000000000000000000000000000000000000000000000000000000000000000000000000000000000000000000000000000000000000000000000090
:403040000000000000000000000000000000000000000000000000000000000000000000000000000000000000000000000000000000000000000000000000000000000050
:403080000000000000000000000000000000000000000000000000000000000000000000000000000000000000000000000000000000000000000000000000000000000010
:4030C0000000000000000000000000000000000000000000000000000000000000000000000000000048E80100127A0000093D0000127A0000127A0008000000401F00004E
:403100000000A00F01000000B10208108D0208100000000080B2C10050B3164B1B681A6AB3F8B030C3EBC303D358002BF5DA3E22114B1A6041F61E7204331A60A3F58473AE
:403140000622C3F8182521F07F41C3F81C15D3F81C35084B1A68116AB2F8B030C3EBC3030B4400225A60054BD3F81C35002BFADA704700BFA04E0208040126400000264033
:40318000F8B5274B1B6893F83130052B04D840F2C311244800F054FA214F3A68166AB2F8B03003EB83031E4452684FF26003D458A4B200F065FA05463B681968D3F89020BA
:4031C0008A58013C032C27D8032A0CD1164A127812F0FF0F07D10822B2601968D3F890208A58032AF9D01968D3F884208B588858C0F307221B0E581C02FB00000B4B03FB19
:4032000000F00B4B1B680B4AA2FB03239B09B0FBF3F08230FFF77EFF284600F009FAF8BDA04E0208002C08100B00001640420F0098430208D34D62104378FF2B23D110B53D
:4032400000F01EFA0446104B1B6893F83130042B04D840F2C3110D4800F0F2F90A4B1A68136AB2F8B02003EB8203DB685A68136843F001031360136813F0010FFBD12046C6
:4032800000F0D6F910BD7047A04E0208002C08102DE9F04707468846554B1B6893F83130012B04D840F2C311524800F0C9F9504B1B681C6AB3F8B0201444D3F8B420161979
:4032C00093F85030002B79D04B4B1B7813F0FF0F02D04FF0000901E04FF00109B9F1000F38D0434B1B6893F83130052B04D840F2C311404800F0A4F93D4B1A68116AB2F8BD
:40330000B03003EB83030B44D2F8B420D358002B22DB002000F0A4F9384B98421ED00023374A12690121184600F0A2F918B1354D17E0013500E00025002000F091F92F4B46
:40334000984202D0304B9D42F3D92F4B9D4207D92C4D06E0002504E02A4D02E0294D00E00025002D41D100F08BF98246274BD3F81C35002B10DA224A0121204600F090F97B
:4033800060B94046FFF7C6FE57B13368002BFCDB00F07EF9054604E01A4D02E0194D00E01B4DB9F1000F05D00121002000F050F90028F9D1504600F03BF916E000F060F98E
:4033C00080460F4A0121204600F06AF938B947B13368002BFCDB00F05BF9054602E0094D00E00B4D404600F023F92846BDE8F087A04E0208002C08100B000016010188004B
:40340000DC4D020805005200EF4902000000264001005000F0B47F4B1A6855684FF0B0535B7813F0FF0F04D04FF0B0535B78DBB200E02123212B55D1116AB2F8B030C3EB7F
:40344000C303CC18CB58002BF6DAE36843F00103E360146AB2F8B030C3EBC3031C44E36813F0020F2DD0E3689EB21368D2F884105958090A090401F47F01D2F88870DB59D7
:403480001B0A41EA03633343E3601168D2F884208B5823F47F4343F410638B505D4A13681C68D3F88810635823F47F4343F41063635013681A68D3F884105158D3F88830F3
:4034C000D358544B1A68116AB2F8B030C3EBC3030B4400215960116AB2F8B030C3EBC3030B445B684B4B19680C68D1F894301C44494A136943F004031361012801D030BF35
:4035000007E020BF454B1B7803B120BF0122434B1A70236803F00303022BE9D00A6AB1F8B030C3EBC303D018D358002BF6DA4FF0B0535B7813F0FF0F04D04FF0B0535B78DC
:40354000DBB200E02123212B30D1C36813F0020F1FD00C68D1F88410635823F47F42C3681B0C1B0203F47F4313436350294B19680C68D1F88800235823F47F420D6AB1F85D
:40358000B030C3EBC3032B44DB681B0E42EA03232350204B1A68136AB2F8B020C2EBC2021344DA6822F00102DA6026E0D5F80C311BBB1B490E681B4BD3F818451A4A1068B0
:4035C00041F61E770F600621C3F818153E2111604422C3F81C25134BD3F81C35002BFADA4FF0AA33C5F80C310D4B1E60A3F58473C3F8184503F582731860064B1A68116A90
:40360000B2F8B030C3EBC3030B4400225A60F0BC704700BFA04E020800ED00E0044E02080801264000002640040126400000000001B40248844601BC604700BFFB270810B8
:4036400001B40248844601BC604700BF1D27081001B40248844601BC604700BFD50E081001B40248844601BC604700BF5D0F081001B40248844601BC604700BF3111081065
:4036800001B40248844601BC604700BFF327081001B40248844601BC604700BF290C081001B40248844601BC604700BF510D08100000000000000000000000000000000051
:4036C00000000000000000000000000000000000000000000000000000000000000000000000000000000000000000000000000000000000000000000000000000000000CA
:403700000000000000000000000000000000000000000000000000000000000000000000000000000000000000000000000000000000000000000000000000000000000089
:403740000000000000000000000000000000000000000000000000000000000000000000000000000000000000000000000000000000000000000000000000000000000049
:403780000000000000000000000000000000000000000000000000000000000000000000000000000000000000000000000000000000000000000000000000000000000009
:4037C00000000000000000000000000000000000000000000000000000000000000000000000000000000000000000000000000000000000000000000000000000000000C9
:0200000490303A
:020000003E516F
:0200000490501A
:0C0000000005E2F021002101E3035F5144
:00000001FF