:020000041000EA
:4000000000400208230100100D00000085010010000000000000000000000000000000000000000000000000000000008101001000000000000000008101001081010010E9
:400040008101001081010010810100108101001081010010810100108101001081010010810100108101001081010010810100108101001081010010810100108101001060
:400080008101001081010010810100108101001081010010810100108101001081010010810100108101001081010010810100108101001081010010810100108101001020
:4000C00010B5064C2378002B07D1054B002B02D0044800E000BF0123237010BD983300080000000078860010084B10B5002B03D00749084800E000BF07480368002B00D1A3
:4001000010BD064B002BFBD09847F9E7000000009C33000878860010DC070008000000007047FFF7FDFF72B60F4C104DAC4209DA21686268A368043B02DBC858D050FAE727
:400140000C34F3E70A490B4A0020521A02DD043A8850FCDC084809490860BFF34F8F00F007F900F01DF8FEE76CA9021084A9021098330008D44500080000000808ED00E0B9
:40018000FEE7FEE700B504207146084202D0EFF3098001E0EFF30880043001F0BDFFFEE710B562B6024800F069F900F05BFAFEE70000081010B5002001F0D0FB10BDC0461E
:4001C00070B56249E0239B00CB580F2213401A00D0329200525807210A40032A05D0042A06D0002A12D15A4814E05A4A106811E01A00C0329200554952581F210A40112ABF
:4002000006D0132A04D0FA20C00103E0524801E080200002002B36D14C4BB222D2009A5801211140B125ED005A59120F032422405B591B0F1C4207D0444C63591B0F032458
:400240002340012B02D102E0012300E00023002B01D0002901D1032A4BD13C4BB022D2009D58AD03AD0B3D495958C904C90C9C58240E01231C40013404F00CFA68432100D1
:4002800004F008FA35E0012B33D1304BC822D2009A5801251540C024E4001A59120F03210A401B591B0F194207D028490B591B0F03210B40012B02D102E0012300E000234F
:4002C000002B01D0002D01D1032A12D11F4DC022D200AB587F210B40A958090A1F263140AC58240C3440584304F0D4F9210004F0D1F9E0239B00154AD3581B090322134074
:40030000D840144C6060164B1D692D0AFC32154001351969090E013104F0BCF9A060290004F0B8F90500E06020610E4BC0180E4904F0B0F920750D4BE818FA21890004F0FC
:40034000A9F9A061C003E06170BDC0460000264000127A00C000000800366E0184050000000021403F420F0040420F00E703000010B5284802F016FC274CB022D200A35804
:400380005B005B08A350E0218900635830208343635080235B04A350204A214BE250A02292010433E250FF221E4BE25002F0E8FBC0225200A35801218B43A35000F01CFC18
:4003C000FFF7FEFEB0235B055B78002B04D0B0235B055B78DBB200E02123212B03D1124B0022DA605A60114C22008021042001F015F82000103001F0EFF80D4B1A685123F4
:40040000D35C002B02D00B4801F05CF900F0DAFD10BDC046647300100000264001000200840500008C050000E0002340B4330008AC450008006200108023024AD358032019
:40044000184070470000214010B501F0F6FE084980228C58074B2340074C23438B508823034AD358DB06FAD501F0EBFE10BDC04600002140FCFF00000100FA0570B505003C
:40048000830504D0E821FF310F4801F00FFE01F0D4FE0400FFF7D0FF032801D1FFF7D4FF0A4AB0239B00D55080215058084B03400848034353508823044AD358DB06FAD52D
:4004C000200001F0BEFE70BD3462001000002140FCFF00000300FA0510B50378022B12D1094B01225A700139CAB2822149005A54411C181D05F045FE00F0E8F8002802D089
:40050000014800F0F9F810BDE000000830B583B00C00284B984229D00AD8274B98421CD0264B98421DD080235B01984240D109E0234B98422BD0234B984228D0224B984283
:4005400019D035E00021002002F05EFF1F4808300CF046F92CE0013B00E00623002BFAD126E00021002002F04FFF21E00222184805F007FE1CE001AD002301930B882B8027
:4005800028000EF08FF96A88114B5A8010E02389152B04D121000E4803F0AEF805E0A188002902D02068FFF797FFE0680FF0E6FA03B030BD015000000330000008400000F4
:4005C0000C5000000E50000003500000E00100084435000810B5084B5B888B420AD9064B14229A81598119815860191D180003F01DF900E0014810BD443500080300160024
:4006000010B5012802D002280ED017E000F06AF8040000F067F882235B00C15C013989B2601DFFF7D7FF09E0054BDC6C200005F0B9FD013881B22000FFF7CCFF10BDC0460F
:40064000E001000810B500280AD082235B00C35C002B05D04378012B02D10079FFF7D0FF10BDC04600B583B00A4800F0D7FB0190019B01220849002001F0DEF829F040FD06
:4006800000F02AF80028F9D000F02CF8FFF7DAFFF4E7C0460D050010A90600100122014B1A7070473002000810B5002808D0842252000100034805F064FD0122024B1A724D
:4006C00010BDC0465435000854360008014B18787047C04630020008014B187A7047C046543600080022024B1A7202487047C046543600085435000810B50200044B0021A8
:40070000012001F03DF843425841C0B210BDC0469D060010FEE7C046F0B50025002711E0BB00C658F3B2FF22964308E06A008A181478A419527822700135013BDBB2002B54
:40074000F4D10137002FEBD0F0BDC04680221206044B1A600422044B1A60044A044B1A607047C04600001D4100031D4101001180000E1F4110B50A00002105F00BFD10BD20
:4007800010B505F0FEFC10BD30B587B03C49A022D2008B58032083438B503A4A116808688823CB58C31818683749084018601368186884241B59C01803681B021B0A8025C5
:4007C0006D042B430360106805680359EB1818680140196013683E229A5C002A06D02848E02189004258753CA24342503E229A5C002A06D02248E021890042583024A2438F
:4008000042503E229B5C002B07D01D49E02292008B588020000603438B500021012001F0CFF80021022001F0CBF80021032001F0C7F80021042001F0C3F80021002001F021
:40084000BFF801A8114903000A0032CA32C312CA12C301F009F9002802D00420FFF75AFF07490B4A8B588020000603438B50094801F0B6F900280FD00420FFF74BFFC046FE
:4008800000002640AC450008FF00FFFF5C620010087F0000400D0300C54CC64BE158C64A0A40E250E158C54A0A40E250E25880252D062A43E250043BE158C14A0A40E250DC
:4008C000E158C04A0A40802189010A43E250E258802109020A43E250BB4A1168BB4B0B40802149000B431360002002F0BFF8B84BE2581543E550E158012291430A43E250A0
:400900006421002001F020FCB24B1B683F229A5C012A06D970229A5C02210A40AE49986842509A6874215B5AD2189168AB4B0B40D02149010B439360A64B1B6873229A5CBB
:400940000321914070229A5C7220185C140084402143022002400A43802109060A438021C900986842509A6852583F229A5C022A03D900219A4A986881509A6874215B5AE1
:40098000D2181168954B0B40A021C9000B431360904B1B687322995C703A8A40110070229A5C7220185C82400A43802109060A438021C900986842509A6852583F229A5C58
:4009C000052A06D970229A5C03210A408549986842509A6874215B5AD218D1687F4B0B408C2189010B43D3607A4B1B6873229A5C03200400944070229A5C7221595C1500A4
:400A00008D402900214302400A43802109060A438021C900986842509A6852583F229A5C062A06D970229A5C01210A406E49986842509A6874215B5AD2185168674B0B4099
:400A4000902109010B435360624B1B6873229A5C0321914070229A5C7220185C140084402143012002400A43802109060A438021C900986842509A6852583F229A5C132A57
:400A800006D970229A5C06210A405849986842509A6874215B5AD2189169504B0B40C42189010B4393614B4B1B6873229A5C0321914070229A5C7220185C14008440214301
:400AC000062002400A43802109060A438021C900986842509A6852583F229A5C142A07D970229A5C04210A40C5210901986842509A6874215B5AD2181169384B0B40C4214B
:400B000089010B431361334B1B6873229A5C0321914070229A5C7220185C140084402143042002400A43802109060A438021C900986842509A6852583F229A5C1A2A06D94C
:400B400070229A5C04210A402949986842503F229A5C392A06D970229A5C05210A402549986842509A6874215B5AD21851691B4B0B40C42189010B435361164B1A6873235E
:400B8000D35C032199407023D35C7220105C1C0084402143052003400B43802109060B438021C9009068435093685B5807B030BD0000264004050000FEFCFFFFFFFF00FFA6
:400BC000FFF0FFFFFF8FFFFF00002740FFFCFFFF0C050000AC450008040C0000FF00FFFF080C0000140C0000180C00004C0C0000680C0000E40C000070B58AB096210020BB
:400C000001F0A2FA01F078FA002814D101F064FAC0235B00674AD358DB0705D41100664A8B585B005B088B506249634A8B588020000603438B50012001F0B0FE5F4A516C2E
:400C40005F4B0B40E82189010B435364536C1B0AFF2213403A2B07D1584A516C594B0B40E82189010B435364002300225649574801F01AFF002300225549564801F014FF5A
:400C8000FFF782FD544A554B1A6000240CE0620012195300524AD318198B9A8AD88A00041043FFF767FD01340B2CF0D900240AE06200121993004A4AD3185A6E196ED86D3F
:400CC000FFF75EFD0134112CF2D9464D2900343128003830FFF720FD0F22434B1A60434A434B1A601222434B1A60434A1368812149000B43136001AC22002B003C3343CB6D
:400D000043C243CB43C243CB43C221003B4800F065FA22002B00603323CB23C223CB23C223CB23C22100364800F058FA354D22002B1D43CB43C243CB43C243CB43C2210015
:400D4000314800F04BFA24220021200005F022FA6023E36021002D4800F040FA22002B00283343CB43C243CB43C243CB43C22100274800F033FA22002B004C3343CB43C23A
:400D800043CB43C243CB43C22100224800F026FA22002B00703323CB23C223CB23C223CB23C221001C4800F019FAFFF7CFFC0AB070BDC046000026400C05000000002740F5
:400DC000FF00FFFFFFC5FFDF0F0E0040050E0000000200402A0200000300FA05F00121405C6200105C630010000063400701010000026340600138400079344000003240FC
:400E000080023240DC630010000332408003324080043240000532400006324010B5002803D00B4BD862002000E00A4800280DD1094B1B78002B05D1054801F023FF01220D
:400E4000054B1A70002801D101F042FF10BDC04634020008010016005D360008C00543425841C0B27047C046214B984230D00ED8402831D004D800281FD010282AD031E0CC
:400E800080282BD080235B00984229D02AE0194B984229D007D8A0231B0698420DD0164B984212D01EE0154B98420AD0144B984209D0144B984215D101E0002016E0124852
:400EC00014E0124812E0124810E0A020C0030DE007480BE00F4809E00F4807E00F4805E0034803E00E4801E0A420C0037047C04606005200010000F0090000A0040000F075
:400F0000050000F0030000F0010052000200520003005200010050000200500005005200FF00520070B5124B1A683123D35C002B04D1C421FF310F4801F0B8F80C4B1D6812
:400F40002C00B423EB582A6A944663441B68002B0BDB094B1868FFF787FF6B6801229A6063689B68002BFBD100E0044870BDC046AC4500089C6F0010643600080200500016
:400F800010B50D4B1861002805D002230370FD33437000234380094B1B6850229A5C002A08D051229B5C002B04D04F3A0449002000F042FC10BDC04664360008AC45000801
:400FC0005508000810B502481430FFF7D9FF10BD6436000870B504000D00FFF73FFF002836D0002D36D0FFF7EBF81B4B1B4A1A6000225A609C60DD60194B1B6852329A5C9D
:40100000002A1FD01A6884215B58D31819681A68120AFF2313405A1C0B0E01335343114C5C43114B1868FA21890003F033FB0100200003F02FFB0D4BC1188020400005F004
:40104000D7F808E000218020400005F0D1F802E0074800E0064870BD6436000800010005AC450008C0EA2101C4000008482600000600520010B5FFF755FF10BD10B50400CA
:40108000FFF7ECFE00283ED0FFF79AF8E02252051E4B1A601E4B1B78002B05D01B4A1368802149000B431360184B5C6000229A60DA60184B1B6854329A5C002A1ED01A685E
:4010C00084215B58D31819681A68120AFF2313405A1C0B0E013353430F4C5C430F4B1868FA21890003F0D6FA0100200003F0D2FA0B4BC118002005F07BF805E000210020C8
:4011000005F076F800E0074810BDC046643600080B000016AC45000860F59000C4000008980800000600520070B504000D00FFF795FE002842D0002D42D0FFF741F8C0229C
:40114000D204204B1A60204B1B78002B05D01D4A1368802149000B4313601A4B802252005A609C60DD60194B1B68AD3A9A5C002A1FD01A6884215B58D31819681A68120A1C
:40118000FF2313405A1C0B0E01335343104C5C43104B1868FA21890003F07CFA0100200003F078FAE1239B00C118002005F020F807E00021002005F01BF802E0064800E013
:4011C000054870BD643600080B000016AC450008808D5B00C40000080600520070B505000C0000285DD000295DD0FF230A689A4303D099212D4800F059FFFF2322699A4307
:4012000003D09A21294800F051FFA3685B0D03D09B21264800F04AFF63685B0A03D09C21224800F043FFE3695B0F03D09D211F4800F03CFF236A5B0F03D09E211B4800F0B5
:4012400035FF1B4A11688B69EB1ADB0949691B01CB18216829607D211068415C6918E06808607E211068415C6918206908607F211068415C6918606908607C211068415C99
:401280006918A06808606168A961116880228A5CAD18A2692A60E2691A60226A5A60002002E0044800E0034870BDC046DC6F0010AC45000801005A0070B504000D000A4B1E
:4012C0001A68B423D3581B181B68002B0ADA0B0C03D00649064800F0E9FE2D042D0C6560002000E0034870BDAC450008D50200005C70001001008A0070B505000C000368C8
:40130000002B01DA002300E0084B002B0BD1EA60230C03D00649074800F0C8FE2404240CAC60002000E0014870BDC04601008A00BB0200005C70001070B505000C1E03D17E
:401340009921084800F0B2FE074B1A68B423D3585B191B68002B03DAEB682360002000E0024870BD9C700010AC45000801008A0070B504000D00234B1A683123D35C834293
:4013800036D9002936D00B68DB0635D13123D35C984204D3C421FF311B4800F087FE194B1B681A6AB0215B5A5C431419174E34602B68DA080021686804F0ECFE0021200039
:4013C000FFF77AFF3468002D03D111490E4800F06DFE2A0000212000FFF78EFF00280DD10A4B18680021FFF767FF002808D108E0084806E0074804E0064802E0064800E0E0
:40140000054870BDAC4500085C7000107C3600089303000003018A0001018A0010B50400002A17D1002915D1124B1A683123D35C984204D3C421FF310F4800F037FE0D4B0D
:401440001B681A6AB0215B5A5C4314190B4B1C6000200EE0002A09D0002909D0074B59609A60191D2000FFF783FF02E0044800E0034810BDAC4500085C7000107C360008A6
:4014800003018A00F0B583B00D001C4B1B68DC68236883422DD947097B01C01A012383401E00002903D100F0C8FE019001E000230193124B18680368002B01DA002300E05D
:4014C0000F4B002B0ED16368BF00DF193B68334203D133433B60002400E00A4C0021FFF7EBFE00E0084C002D04D1019800F0A9FE00E0064C200003B0F0BDC0467C360008D7
:4015000001008A00020188000301880004018A00F0B583B00D001C4B1B68DC68236883422DD947097B01C01A012383401E00002903D100F082FE019001E000230193124B73
:4015400018680368002B01DA002300E00F4B002B0ED16368BF00DF193B68334203D0B3433B60002400E00A4C0021FFF7A5FE00E0084C002D04D1019800F063FE00E0064CAF
:40158000200003B0F0BDC0467C36000801008A00020188000301880004018A000A4B1B68DA68136883420BD943095901401A0121814052689B009B580B4203D0034802E004
:4015C000034800E0034870477C3600080101880004018A0000018800034B1B68002B01D1014B18607047C04688360008F0B5474680B404000F0090461E002D4B1B68002BBA
:4016000003D1B5212B4800F051FD294B1B682C2060431C18FF22150035402560330A13406360360CA660244B1A683123D35C9D4204D3C421FF31214800F038FD1E4B1A68B2
:40164000B023D35A6B43116A8C466344236166683223D35C9E4204D3E021FF31174800F025FD154B1B681D6A80367601AD196561A668330C04D0FF214900104800F016FD91
:40168000330C03D00E490D4800F010FD3604330C1E43AE604346E36127620023A361069B002B02D000229B5EA38104BC9046F0BD88360008DC700010AC4500085C700010F3
:4016C000FF010000F0B58FB0041E03D15221294800F0ECFC6368032B03D95421254800F0E5FCE36A002B03D15821224800F0DEFC236B002B03D159211E4800F0D7FC07AAF2
:401700001300210061C961C321C921C302AD290023001433C1CBC1C141CB41C10821535E0CAE3380144B1B6836215B5E07998C466344B370089B0D930B9B0A980096A26A59
:40174000E16AFFF753FF2B69E868002200920021FFF74CFF216B300000F03AFC0023F25E002A05DB1F231A401E3B9340034A13600FB0F0BDDC700010AC45000800E100E073
:40178000F8B505000F0016001C00002A03D1FD21224800F08BFC224B1B68002B03D1FE211E4800F083FC1E4B1B682C2128004843181879435918012213004D68AB401B0418
:4017C0004568AA4015000269002A20D08F69002F1FD11268002A01DA002200E0114A002A19D132681204120C134333600369DE6001238B614C6204692B0C03D00A490B4875
:4018000000F054FC2A04120CA260002004E0084802E0084800E00748F8BDC046DC7000108836000801008A00BB0200005C70001004028A0007028A0070B504000D001600F5
:401840000F4B1B68002B04D1AF2149000D4800F02DFC0B4B1B682C2060431C18236A002B04D1B1214900074800F020FCE369B34204D9236AB6009D51002000E0024870BD3F
:4018800088360008DC7000100A028A0070B582B0040000230193002804D1D221FF312D4800F004FC2369002B04D1E9214900294800F0FCFB6369002B04D1D421FF31254844
:4018C00000F0F4FB236A002B04D1EA214900214800F0ECFB6269D5682B0C24D01B041360136820691C4B1A68B423D358C3181B68002B18DA01A9FFF71FFD00280ED101985D
:4019000003681E0CFF221340E269934207D29B00226AD358002B02D0984700E0002631002069FFF7C9FC2D042D0C0FD063691D601B68636A002B03D098470023636203E072
:40194000A36A002B00D098470023A36163691B6802B070BDDC700010AC45000810B50400084B1B68002B04D1B221FF31064800F09DFB044B1B682C2060431818FFF786FFF2
:4019800010BDC04688360008DC70001010B50400094B1B689B6CC340DB0703D4BE21074800F084FB044B1B681B691034A402E3580F20184010BDC046AC4500081C710010C7
:4019C000134B1A683C23D35C83421DD9042904D94B1EFF3B9BB2132B18D8FF290CD91F2319400C4A0300C0339B009950D03080000423835000200AE007231940D030800097
:401A0000044BC150002002E0034800E002487047AC4500080000264001004A0010B504000E4B1A683C23D35C834204D8A12149000B4800F03BFB2300D0339B00094A985813
:401A400007231840042807D1C034A400A3581B30184080235B00184310BDC046AC4500085C7100100000264070B5041E03D14A494A4800F01BFBB023DB00494AD358002B65
:401A800000DA87E0474B22689A4203D94649434800F00CFB23689B039B0BE279002A02D08022520400E000221343B022D2003C498B50A2883D4B9A4204D98C218900374866
:401AC00000F0F4FA22893A4B9A4203D93949334800F0ECFAA388DB04D90C23891B04364A13400B43354A2E498B50A37A0F2B04D98E218900294800F0D9FAE37A0F2B03D98E
:401B00002F49264800F0D2FAA289284B9A4203D92C49224800F0CAFAA37A0F211940E27A1201FF2313400B43A289120226490A401343A27B1207C02189050A401343B122DC
:401B4000D20017498B50A379042B03D91F49134800F0ACFA228A164B9A4204D9912189000E4800F0A3FA0E4819494558194B1D40A3791B02E022D20013402B4343504558E0
:401B8000154B1D40238A1B040B4A13402B434350002000E0114870BD1F0200005C71001000002640FFFF030029020000FF1F0000FF010000310200000000FF018405000003
:401BC000390200003A02000000FF1F00430200008C050000FFF8FFFFFFFF00FE03004A0070B505003149324A8B588020000603438B502C0003E0012000F04CFA013CB223FA
:401C0000DB002A4AD3585B0701D4002CF3D12749B122D2008858274B03408020800503438B50002D01D0002C0CD02049B022D2008B588020000603438B5003E0012000F062
:401C400029FA013CB223DB00184AD358DB0701D4002CF3D1002D01D0002C08D01349B122D2008B58C020800503438B5013E00F4BB121C90058580F4A024080208005024317
:401C80005A5008395A58520052085A5008495A58520052085A50002D03D0002C03D0002002E0002000E0044870BDC046000026408C050000FFFFFFCF02004A00F0B5564C02
:401CC000A04200D9A2E0A24200D9A1E0534B994200D99FE00124524B1C70FF2805D80F2505400E340F26072321E04E4B984205D80F2303400F240026002518E0040A0F23B0
:401D000023401D00484B984208D80001FF2318402B000343FF240026002508E00402F020000120402B000343404C00260025FF2A0DD81201FF2002401543E020C0021843DE
:401D4000F0231E43F0231B0323439C4625E03548824207D81004F022120310401843224394461AE0100A0004F0273F03384018432D4B9A4209D81205F0231B0413401843BC
:401D8000FF231B0423439C4607E01206F0231B051A401043264B23439C46264B1A68176AB023D45AE200131BFB181B68002BF4DA1B4B5B78002B04D01F4B204AD358002B8C
:401DC00018DA1F4A1F4B1A601F4A204B1A601B4AA324E4001359B3431D4315511C4C13596546AB43184310510D4B5960124BD150002000E017480F4B1A68146AB023D15AAF
:401E0000CA00531AE31800225A6004E0114802E0104800E00F48F0BD0F060000FFFFFF008C360008FF040000FF0500000F0F000000000F0FAC4500081C050000000026409A
:401E40001F1F0000080126403D3D0000040126401405000001004A0070B50022264B1A70264B1C68226AB023E55AEC00631BD3181C68002CF4DA224A1468224A944206D1C3
:401E8000214A1468214A944203D0002502E0002500E00125A422D2001D4CA4582402240A00225A60002D24D0002C23D000280FD1114B58680A000023002102F081FD62083C
:401EC000002380185941220002F05AFD040011E00A0000232000002102F072FD064B5A685408002500196941002302F049FD040000E00024200070BD8C360008AC45000894
:401F0000080126401F1F0000040126403D3D00000000264070B505000C001A4B1B6828229A5C012A15D1820807211000884327D19200AD1AED00FF20A8401B6820339A18E0
:401F40001168AC4023004B40184004004C40146016E03A229B5EDBB2994203D176210A4800F0A4F8074B1B681B68072215408022120615438022920194466444A400E5507E
:401F800070BDC046AC450008E471001070B504000D000B4B9A680B4B9A420CD1002904D13821FF31084800F081F81034054BA400E058E55003E01034A400044BE05870BD8F
:401FC00000ED00E000000008E471001000000010F0B5474680B482B0061E01914AD04368032B03D93221264800F060F80023F05E002804DBB178FFF78DFF002400E0214CDD
:402000000023F15E7368002912DB88081E4FC0308000C55903221140C900FC3290468A4095439A01434613408B402B43C35116E089B20F220A40083A92080632920013485C
:402040001018476803221140C900FF252A008A4097439A012B0013408B403B4343600B4B9A680B4B9A4206D10023F05E0199FFF78DFF00E0034C200002B004BC9046F0BD21
:40208000E47100100100560000E100E000ED00E00000000810B5034B1B78584300F0C4F810BDC046D400000801BEFEE770B50D00044C18220100200004F07BF8A561002024
:4020C000FFF7F2FFF00C0008024B1B685B6801229A607047AC450008054B802212069A649B6C002B01DB002000E002487047C0460000274003004600054B802212019858D3
:402100005B68FF221A4202D08023DB021843704700002640FEE7C04610B50A4B0268DA6142681A6282685A62C2689A620269DA6242691A6382695A63C2699A63FFF7EAFF7B
:4021400010BDC046F00C0008F0B5474680B4002801D0192300E064238B429B415B42304D2C682268A826A45BA41822680327BA433B401A4322602C682268A45BA2181668BC
:40218000284CA046264016602C682668AA229446A25A96193268BA43134333602A6813686546525BD3181A68444614401C60002805D010291BD921291BD8012024E0184BDB
:4021C0001B6855229A5C914215D956229A5C914213D957229A5C914211D958229A5C91420FD959229B5C99420DD804200CE000200AE0022008E0002006E0012004E0022027
:4022000002E0032000E00520054A1268526813680F218B430343136004BC9046F0BDC046AC450008FFFCFFFF0230800803D001300238FCD1C046C0467047EFF3108072B682
:40224000704780F31088704710B5B0235B059B899BB2002B04D0B0235B059B899BB201E080235B0080225200934215D1184C23681968683A9B58C9180B680F208343963A2D
:4022800013430B6021680C689C23CB58E318196881430A431A6019E00D4C2368196898229B58C918B02040050A4BC2580A4B13400A681343C022920013430B60226811685F
:4022C0009C23D358CB18054A82581A6010BDC046AC45000848180000FFFCFFFF4418000030B5B0235B059B899BB2002B04D0B0235B059B899BB201E080235B0080225200EE
:40230000934215D1184C23681968683A9B58C9180B680F208343953A13430B6021680C689C23CB58E318196881430A431A6019E00D4D2B68196898229B58C918B0246405EC
:40234000C12040012258094B13400A681343C022920013430B602A6811689C23D358CB1822581A6030BDC046AC450008FFFCFFFFB0235B059B899BB2002B04D0B0235B0596
:402380009B899BB201E080235B008022520093420DD1104B1B681A6898215B58D21811680D4B0B40C021C9010B43136011E0094B1B68196898229B58C918084BB022520595
:4023C000D258074B13400A681343C022920013430B607047AC450008FF8FFFFF18180000FFFCFFFF30B5B0235B059B899BB2002B04D0B0235B059B899BB201E080235B00A1
:402400008022520093420DD1134B1B681A6898215B58D2181168114B0B408021C9010B43136018E00C4D2B68196898229B58C918B02464050A4822580A4B13400A68134384
:40244000C022920013430B602A6811689C23D358CB1822581A6030BDAC450008FF8FFFFF4C180000FFFCFFFF10B5B0235B059B899BB2002B04D0B0235B059B899BB201E09F
:4024800080235B0080225200934217D10020FFF77DFAB0235B055B78002B04D0B0235B055B78DBB200E02123222B03D8002803D1013004E0012002E0002000E0012010BDFA
:4024C00010B50400012803D910491148FFF7EEFD002C03D10F4B5869C00F00E000200E4B1A684423D35C002B0ED0012C0CD1094B9B695B0005D4074B9B69002B03DA012002
:4025000002E0012000E0002010BDC046620700002872001000002640AC45000870B504000D00154B1A684423D35C002B22D0072803D912491248FFF7B9FD0F4B1A684423D9
:40254000D35C002B04D00F4B9B690722134000E0002321009C420DD00A4882690726B243344014438461002D04D0994202D9C820FFF790FD70BDC046AC450008CC07000044
:40258000287200100000264030B5021E22D0C368002B21D00368002B20D00579A900104BCC582300002103E0934205D019005B69002BF9D1012000E0002000280FD0002CAA
:4025C00003D1AD00064BEA5000E04A6111610023536104E0002002E0002000E0002030BD9836000810B5021E28D00479A100144BC9580B0002E0934204D05B69002BFAD167
:40260000002000E00120002819D08A420DD14B69002B05D0A4000A4AA35000221A610EE0A4000022064BE25009E01A69596951615A69002A03D01B69136100E0002010BDE6
:402640009836000830B585B004000D00022807D9042805D0032803D02A492B48FFF726FD6B1EDBB2012B07D9042D05D0082D03D026492548FFF71AFDA400254BE458042DB7
:4026800013D0012D1CD112E0A3682B420BD1E3681A6802925B6801930393290002A8236898471B4B5C61646902E0002000E00020002C24D0174B9842E6D1012DE4D11EE065
:4026C000022D01D104E01C006369002BFBD104E00F4B5C69002C00D0246900200DE0A3682B4209D1E3681A6802925B6801930393290002A8236898472469002CEFD105B072
:4027000030BDC046B209000028720010B309000098360008FF00420070B50500012804D9E02149001B48FFF7C1FC1B4B1B68002B05D001210020FFF785FF040000E0002431
:40274000002C20D1FFF779FD0600134B1B68002B03D004210020FFF775FF104A136904218B431361012D01D030BF00E020BF3000FFF767FD084B1B68002B09D008210020A5
:40278000FFF760FF04E002210020FFF75BFF044C200070BD287200109836000800ED00E0FF00420010B5FFF748FD074B5A6807490A40E824A40122435A605A6811405960D8
:4027C0005B68FFF73EFD10BD00002640FF00FC0FF8B50700012803D93D493E48FFF766FCB0235B055B78002B04D0B0235B055B78DBB200E021239DB2B0235B059B899BB2DC
:40280000002B04D0B0235B059E89B6B201E0802676000020FFF7BAF8002814D180235B009E4212D1222D12D82B4B1B685C682B4821582B4B19403B068022520413400B43B9
:402840002350002404E0274C02E0264C00E0254C80235B009E4201D1222D03D880235B009E4232D01C4B1A683123D35C002B04D1C421FF311C48FFF719FC174B1B681D6AAF
:4028800080235B009E4203D1002F05D0174A06E0002F03D0164A02E0164A00E0164A01212800FEF729FD00280FD10B4B1A68B423D3585B191B68002BF7DBEB681B0E1B065F
:4028C000A0221206934200D100242000F8BDC0464C0A000028720010AC45000818F00000FFFFFFFE040042009C6F0010010100300300000C010000300100000C70B5040054
:40290000022805D0052803D020492148FFF7CEFBFFF7AAFD002836D0FFF78FFC0600022C07D10120FFF754FF051E0FD1FFF78CFC0CE018494B6907229343043A13434B6184
:402940003420FFF7A7FBFFF74DFD0025002D16D110494B69072293431A000723234013434B61022C02D1FFF703FD08E09120FFF791FBFFF7B5FC0020FFF72AFF0500300010
:40298000FFF75FFC00E0044D280070BD02070000287200100000264003004200F8B50500012804D9822109012948FFF77FFBFFF75BFD002849D0FFF740FC0700002D11D1C5
:4029C0000021244B244AD150E823DB00B0225205D65CF6B20120FFF7FBFE041E19D1FFF733FC16E0B02252051C4BD0581A4B194958501B49565CF6B21A481A581F218A43D2
:402A000014390A431A500320FFF744FBFFF7EAFC0024002C15D11049124A8B581F20834306401E438E50002D02D1FFF7A1FC08E00720FFF72FFBFFF753FC0020FFF7C8FE23
:402A400004003800FFF7FDFB00E0074C2000F8BD28720010307F00000000264010180000410700001CFF000003004200042805D10B4A116804230B4313600FE0094B1A6818
:402A80001168A023D358CB180006C022920410401860034A136804218B4313607047C04610E000E0AC450008F0B54F464646C0B483B006000D0000921F00012B03D95B211D
:402AC0002B48FFF7F3FA330B03D05C212848FFF7EDFA284B1A686E23D35A9B08013B264A13432A009A4301D16B0003D45D212048FFF7DCFA32006A40F0231B011A40141EE9
:402B00002FD1FFF79AFB01901A4B18686C23C15A83689C4661446E23C35A9A08013A2A40920090466A22825A15402D0A5D432A00424455182A68920A9202FF231E40009B8D
:402B4000002B01D00134FF3426437F0280239B001F403E4316432E600198FFF772FB002000E0064803B00CBC90469946F0BDC04668720010AC450008000F00400100CE00D4
:402B80000749C02252008B589B009B088020C00503438B508B588020000603438B50704700002640014B18607047C046AC45000870B5012902D0082944D049E0294B1B7813
:402BC000012B47D00320FEF7E9FC274B984243D001F03EFD012841D0022005F0F2FE0500FFF72BFB214B186027F08EFA0400062817D0022D0AD1022013F08EFE032C01D051
:402C0000052C10D1002810D0194C13E0012013F083FE022C0BD000280BD1FFF77DFD144C08E0002406E0124C04E0002402E0104C00E00F4C0E4B9C4211D10C4B1868FFF7E9
:402C400000FB0CE0094B1868FFF7FBFA002406E0074C04E0064C02E0054C00E0044C200070BDC046B345000801018800D0360008FF00420010B50248FFF7B4FC10BDC04604
:402C80000805000810B5002813D00B4B5860C36A002B01D0084A93600023084A1370084A1370084A1360084A137000F0A5FB002000E0064810BDC046D0360008C045000880
:402CC000C4450008C8450008C54500080100160030B59BB015AD14222C49280003F051FA02AC4C220021200003F054FA284B0293A560284BA3810523A373F633238363834D
:402D0000F83B2377013363770622A2771B32A35428324033E252483A0433E2541E48FFF733FC05F042FE05F046FE08A805F0AEFE002828D1194B0393194B5B68996B00298A
:402D400004D022222A30684403F01BFA02A805F045FE002814D10122124B1A700023124A1370124A13700E4B5B681A6A00929B6ADB886A469380C823D38068460DF074FD9C
:402D800000220B4B1A601BB030BDC0461C740010B1390010E4240000080500082C0D0008D0360008B3450008B4450008B5450008C8450008014B024AD050704778F001006D
:402DC00000003C4010B51AF031FD044B1B68002B02D0002800D0984710BDC046DC36000810B5002809D0FA23FF33994207D80A00044903F0C6F9002002E0034800E0024878
:402E000010BDC0460708001601001600F0B55F4656464D464446F0B4B14CA54481460E00904605930B00AF4A914204D942468A18AD498A4211D9AD4A934204D94246B2182E
:402E4000AB498A4209D9AB4A934200D823E14346F318A94A934200D922E1A84B5B695B0010D5A64B5B6907241C40022C25D10520FFF744FD0190A24B9842F8D00394012344
:402E8000049324E09F4B9D4AD3581F221A40E823DB00B0214905CB5C9B1A5A1E9341DBB20493002B0FD10120FFF778FD944B9842F9D001900523039309E0039401230493EC
:402EC0000023019303E005230393002301938E4B019A9A4204D1D621FF318C48FFF7E6F8F0231B069C466644730A9A465C0200210320FEF7C7FA0028F9D10025002302938B
:402F000099E0B4421BD3BD4219D24A4652191078804606A84146C154594600290DD1802149058846A044414609786846017001781278914201D001229346013505E08022E9
:402F40005205A218127806A8C2540134013304E0002100238B46844647466D4A9342D0D959466046B846002962D0019B002B5FD1059B002B51D1C83300951D00B346564640
:402F8000A24680231B03F7187F023800FEF776F80400013D0120FFF77DF8A423DB0322001A409A4201D1002DEBD122000294009D5446B2465E46574B9A4205D1FEF75AF891
:402FC000554B9842FAD00290029B002B19D1C83300971F00A34606A90098FEF7A5F80400013F0120FFF756F8A423DB0322001A409A4204D1002FEED102945C4601E00294BE
:403000005C46444B029A9A4211D1FEF733F8424B9842FAD0029001200AE0802000035044400206A9FDF7D6FF0290012000E0012001239C46E244029B019A134301D145455C
:4030400086D3002801D0FFF73FF800210320FEF75FFA0028F9D1019B002B25D1274B5B695B0009D5039B022B06D10220FFF746FC0190234B9842F8D0204B1B681B0213D492
:40308000049B002B10D10020FFF788FC01901C4B9842F8D008E000230193204B029303E0002301931D4B0293019B002B0CD11C4B029999420AD0194B994207D0002901D18F
:4030C000002004E0174802E0174800E0174887239B009D443CBC90469946A246AB46F0BDE4FDFFFFFFFFFF0F00001010FFFFFF1300800014FF070016000A00160000264043
:40310000040042001CFF00000300420030750010FF0100000100500002005000060052000200520013001600120016000100160010B500280AD0FA23FF33994208D8F93B78
:40314000FF3B0A000349FFF761FE02E0024800E0014810BD070800160100160070B5C0B005000C001600802252000849684603F008F805E02A7872406B469E5C0135013C13
:40318000002CF7D1300040B070BDC046307400100020704710B50C000088AE235843044B9C4660440A2101F075FA208010BDC04691FCFFFF10B50C000023C05E044B58431E
:4031C000044901F0F1FABD23181A208010BDC0464B280000102700000020704710B513F0C5F910BD10B5FEF755FF10BD064B1B685B6B00229A5E002A05DB1F231A401E3BBF
:403200009340024A13607047D436000800E100E0094B1B685B6B00229A5E002A0ADB1F231A401E3B9340802204498B50BFF34F8FBFF36F8F7047C046D436000800E100E04A
:40324000A023DB00024AD358032018407047C04600002640024B034AD058C00F7047C0461C0500000000264010B5FEF7F5FD10BD70B504000D0016000320FEF78FF9054B11
:40328000984205D0320029002000FEF717FD00E0014870BD0101880003004A0070B5431ADC171B196340934227D3164B164CE458A405A40D884208D9401A51084018110073
:4032C00001F0E8F9201A0ED50AE0081A51084018110001F0DFF900190C4B984202D802E0002000E00A48084D06496B589B0A9B028205920D13436B5001E000240020201AB1
:4033000070BDC0463C05000000002640FE030000FF03000010B5034B1A6880210902FFF7BDFF10BD2005000810B501F02DF80220FFF740FD094C2368586B0949FEF748FE63
:4033400023685B6B00229A5E002A05DB1F231A401E3B9340034A136010BDC046D4360008C52D001000E100E00420704710B5FEF764FF10BD10B5FEF764FF10BD10B5FFF73E
:40338000CBF910BD10B50021FFF7C8F810BDC0467047C0467047C0460020704700487047110016000048704711001600004870471100160000487047110016000048704725
:4033C000110016000048704711001600004870471100160000487047110016000048704711001600004870471100160000487047110016007047C04610B5024800F02EFEDA
:4034000010BDC0460405000870B5022875D8002975D10022002306E03C4CE45C012C01D90132D2B20133002BF6D0012A0CD1384B1B681C688A0052189300E3185B681B795C
:40344000023BDBB2012B5CD8324B1B78002B5AD1314B197000281DD12D4E34688B005B189A0023689D18CB00591A4B006168C918898829822168891849686468E45A0C8052
:4034800031680C68A446624452684968CB185B8853801FE001281DD11D4D2C688B005B189A0023689E18CB00591A4B006168C91889893182216889184E686168C91809896A
:4034C000318029680C68A446624452684968CB185B895380114B18700D4B1B6818680E4B1B789A00D3189A00801809F0D5F800280AD10122074B1A7006E0094804E008486C
:4035000002E0084800E0084870BDC046B4450008D4360008B5450008B2450008C54500080100160002001600FF00160070B5002907D1154B1B681B689968CE7F002300256A
:403540000FE0114B1B681B68D968CE7FF6E7CA5C002A0AD00133CC5C1B2C01D09B1800E00125B34201D2002DF1D0002D0BD001338279CA54002204E0D4180134855C0D55C3
:403580000132052AF8D970BDD436000870B505000DF088F9041E1AD10E4B19682B899A00D2189300143B0A6A944663445A6892010DD5EA7B1B695B68C8691B1A900080188A
:4035C000C018054BC0182968AA8802F0DAFD200070BDC046D4360008B845000870B586B004000289164B1B685B699B889A4223D101A80300220062CA62C300238381A389DE
:40360000C38140230374FFF7C1FF051E0ED123681B789B0705D50B4B1B6821000A48984704E0084B1B68210008489847084A137801218B43137000E00025280006B070BD85
:40364000D4360008D83600080500010006000100C045000810B54288531E9BB2142B1CD84478002C1BD1104B196893009A189300143B0A6A944663445A68920111D51B69FD
:403680005868C969411AA3001C19641807496118022202F076FD002004E0012002E0012000E0002010BDC046D4360008B845000830B587B0041E18D00E4B1B68196A0289F5
:4036C00093009A189300143BCB185B689B010ED401AD14220021280002F05CFD2B0007CC07C32800FFF752FF02E00E2000E0012007B030BDD436000870B586B006000C1E7E
:4037000016D0002816D001AD14220021280002F041FD2B0007CC07C3022231001220684402F02FFD40232B742800FFF72FFF02E00E2000E00E2006B070BDC046F0B5474698
:4037400080B482B005000C009046002840D001AF02220100380002F014FD7B78002B02D1244AD35C00E00023012B34D9152C35D86B78002B1AD000271F4833E00B199A0045
:40378000D2189300143BF3185A6892010CD56A781B695B68C0691B1A9000821817488218D35C424613800127013101E000210027134B1868066AA20012199300143BF3187D
:4037C0001B891B1B99420CD8002FD7D00A4809E00027094806E000270A4803E00027064800E00548002F00D0002002B004BC9046F0BDC046B445000801001600B84500088C
:40380000D43600080700160000B583B06B469A1DFFF794FF002805D16B4606331B880130184000E0002003B000BDC04670B586B004000D00002827D0002927D001AE022278
:403840000100300002F09DFC7378002B02D1144AD35C00E00023012B1AD92800FFF728FF002817D129892000FFF7CEFF002813D002AE30000ECD0EC00222210002F081FCC2
:4038800030000CF06DF908E0064806E0054804E0054802E0054800E0054806B070BDC046B44500080100160007001600020016001700160030B583B004000D0006220021AB
:4038C000684602F067FCA3896A4613802389538012231371074B1B78DB0709D4002D04D0557168460CF01AF902E0E0680CF046F903B030BDC045000810B5002811D00023F3
:40390000002406E09A0011495258904200D1012401330E4A1279934206D2002CF2D0002303E000240A4B00E00023002B0CD1002C0AD1064A1279002A05D104499400605068
:4039400001320A7100E0034B180010BDCC450008010016000300160070B506000D000020002406E0A200074BD3582900300098470134044B1B799C4203D2034B1B78DB07F6
:40398000F0D470BDCC450008C04500088379002B06D000200AE0C25C002A06D1013300E00023052BF7D9002000E001207047C046F0B5474680B48AB004000D00C74A11786A
:4039C00001230B43DBB21370C54B984200D13CE230D8C44B984200D1CAE015D8C24B984200D1FCE007D8023B984263D0BF4B984200D1F0E0FCE2BE4B984200D12DE1BD4B29
:403A0000984200D1C2E0F3E2BB4B984200D139E107D8BA4B984200D1AAE0B94B984240D0E6E2B84B984200D113E2B74B984200D1C0E1DDE2B54B984200D192E216D8B44B0E
:403A4000984200D145E208D8B24B984200D1ADE1B14B984200D1ADE1CAE2B04B984200D15BE2AF4B984200D173E2C1E2AD4B984200D1AEE208D8AC4B984200D1A1E2AB4BCF
:403A8000984200D1A1E2B3E2A94B984200D1A8E2A84B984200D118E2A74B984200D0A7E29BE2280005F03CF98C4A137801218B4313709DE2A14B1E683000FFF767FF002815
:403AC0000CD0300009F0FCFE9C4E00213068FFF72DFD30680121FFF729FD37E0984B19688B6A1B79002B22D0B0204005954BC35C3F221340944E865D324092011A43934B40
:403B0000C65C1F2333401B031343C022D200805C7F220240520413430A6B1370884A1168096B180A48701268126B1B0C9370844E3368186B09F0C4FE3368186B0021FFF789
:403B4000F5FC3368186B0121FFF7F0FC7C4B1B68986A02300AF064F908227D4904A802F010FB04A809F0D0FE02227A4B1A703FE20023784A1370784A1370784A13705F4B21
:403B80009C4200D034E2FFF775F831E2744B1B68DB0700D52CE204AE03220021300002F0F9FA674F3B689B6A1B785BB23370300009F0C4FE3B689B6A5B785BB233700127D8
:403BC0007770FF23B370300009F0B8FE644B1A6817431F600CE22900FFF7BEFE08E26B78984602225A49083104A802F0CAFA00261DE002AF73005B49C9180222380002F0C0
:403C0000C0FA7B78002B02D1574AD35C00E00023012B0BD97300534A9B5C984506D176009119022204A802F0ACFA02E00136002EDFD004AB5B78FF2B04D103D14B494C4840
:403C4000FEF734FA04AB1B8807AA138006AA13801B0A2978474AD154CAE12B78002B00D0C6E12B7A002B07D1434B0C22DA80BC329A80424A1A606B60184A137801218B4368
:403C80001370B5E1EB78002B00D0B1E16B79984602222F49083104A802F073FA002670E003AF73002F49C9180222380002F069FA7B78002B02D12C4AD35C00E00023012BEF
:403CC0005ED97300274A9B5C984559D176009119022204A802F055FA55E0C046C04500080840000001300000021000000110000003100000042000000440000012300000D9
:403D00001930000006400000074000000C500000015000000A400000104000000250000003500000105000000E5000000F5000001750000001600000145000002405000847
:403D4000D43600080406000005060000030600006C750010B3450008B5450008F0360008C8450008B0450008B4450008CA03000078750010C4450008F83600081032000884
:403D80000136002E8CD004AB5B78FF2B04D103D1A149A248FEF78AF904AA138808A90B8013801B0A01219E4AD15421E12900FFF7D3FD1DE12B78002B43D1AB78012B02D142
:403DC0000022984B1A706B78984602229649083103A802F0D6F900261DE004AF73009349C9180222380002F0CCF97B78002B02D18F4AD35C00E00023012B0BD973008B4A5E
:403E00009B5C984506D176009119022203A802F0B8F902E00136002EDFD003AB5B78FF2B04D103D17C497D48FEF740F903AA138809A90B8013801B0AFF2B02D0A9787D4A22
:403E4000D15402227C4B1A70D2E002227A4B1A70CEE02900FFF780FD784B1B78DB0700D4C6E0704B1B78012B03D102226D4B1A70BEE0032B03D100226A4B1A70B8E0022B0D
:403E800000D0B5E00022674B1A706D4B1B6858686C4B1978CA00531A5B00C3189A79002A00D1A5E09B88002B00D1A1E0664B1B78002B00D09CE00120FFF7A6FA002800D0F2
:403EC00096E00122574B1A7092E02900FFF744FD8EE002222900684602F053F96B465B78002B03D10221524AD15405E0002B03D156494A48FEF7DAF8687840004B4B18185B
:403F00000222290002F03DF96B780021504AD15429002000FFF720FD6AE001AE02222900300002F02EF97378002B03D10021404AD15405E0002B03D144493848FEF7B6F810
:403F40006B780021364AD15429002000FFF704FD4EE004A82B880380FF2343800BF0ECFD46E02800FFF73AFB011E04D129002000FFF7F2FC01002800FFF79CFC2F4B1A7822
:403F800011231A4204D0334B1B682900200098472A892A4B1B78DB070DD5531E9BB2142B09D904A8122303714280AB890380012343710BF0B3FD214A137801218B4313705C
:403FC00016E02900FFF7C8FC12E02900FFF7C4FC0EE02900FFF7C0FC0AE02900FFF7BCFC06E02800FFF736FB29002000FFF7B4FC124B1A7811231A4209D0104A137801210A
:404000008B431370134B1B682900200098470AB004BC9046F0BDC046CA03000078750010F0360008B54500086C750010B0450008B4450008F4360008B3450008C0450008FB
:40404000D4360008B2450008C545000886030000C4450008D83600080020704710B5002805D0044B18600448FFF746FC00E0034810BDC04604370008594000100100160088
:4040800070B50D000F4B184300040F4BD861FA24A40003E0013C0120FDF7FCFF0A4B1B6CDB0701D4002CF5D1002C08D0064B196C01220A431A64DB6A2B80002000E0034808
:4040C00070BDC0460080FFFF00003C400400160010B500040E4B184001430E4BD961FA24A40003E0013C0120FDF7D4FF094B1B6CDB0701D4002CF5D1002C06D0054A116C0C
:4041000001230B431364002000E0034810BDC0460000FF7F00003C4004001600F0B583B006000A24C02149017548FFF7D1FF002804D16B46991D7248FFF7A2FF002C01D0F8
:40414000013C00E06F48002805D16B46DA88C0235B019A42E6D1002825D16B46991D6A48FFF78EFF00281ED16B4606331B885B0519D40A248021C9006348FFF7A9FF0028D4
:4041800004D16B46991D6048FFF77AFF002C01D0013C00E05B48002805D16B46DA888023DB009A42E6D1002804D16B46991D5748FFF766FF002844D16B4606331B883F2244
:4041C0009343B278012A15D1F178012904D88FB20222D21B95B201E000250227402213439BB2302213436A46D380494BCB40494A136013E0F178002904D18FB20122D21B77
:4042000095B201E00025012740229343102213436A46D380404BCB403E4A13606B469C1DD9883943D9803948FFF752FFF378DB1B03221340AA0092B213432380374A38498B
:404240008B50B0235B055B78002B04D0B0235B055B78DBB200E02123212B4FD0314BB0225205D35A9BB2002B48D0002804D16B46991D2D48FFF704FF002824D16B469A1D83
:40428000DB8860218B4318001380B0256D05254C2B5B60310B405B08034324490B401380295BC901F020C00001400B43204919401180285BC0239B000340DB001943118087
:4042C0001948FFF705FF002804D16B46991D1948FFF7D6FE002811D16B469A1DD988C023994311800F4BB0204005C05A302303409B00194311800F48FFF7EAFE03B0F0BD75
:40430000021E000004001600031E0000091E00000048E801C00000080024F40064F0010000003C4016180000071E00007FF5FFFFFFE7FFFF061E000070B50C00400008498A
:4043400001430848FFF7C4FE051E04D106490748FFF7BEFE05006001FDF79CFE280070BD01100000081E0000376800000F1E00000349044A8858102303438B507047C046D2
:4043800000003C4070F00100F0B59DB013A9144B0A00180070C870C270C870C270C870C20AAD28001A002432D0CAD0C0D0CAD0C0D0CAD0C001AC22004833C1CBC1C2C1CB01
:4043C000C1C2C1CBC1C20748FCF708FF29000648FCF704FF21000548FCF700FF1DB0F0BDB0750010000132408001324000023240F8B5051E00D1DDE0734B5B689B0301D539
:40440000FEF7D0F9714C03E0013C0120FDF742FE6F4B704AD358002B01D0002CF4D16E4B6C4AD358DB0704D56C4BD358DB0700D5C2E0674B674AD358002B00D0BEE0FFF753
:40444000A3FF644B6649674A99502A78A02109030A4365495A506549654A9950802252009B58DB0700D5ABE0624B1B6F1B0709D4614B1868614B984206D9190000F00AF94C
:40448000013802E0012000E00020524B1B68002803D040035A4A104300E05A4818434D4B1860494B5B695B0017D501210320FEF735F8454B5B699B0F01221340524A1168EF
:4044C00044228A5C002A0ED0002B0CD03E4A93698021C9050B43936105E03E494B4A8858032303438B503B4C3B4AA658484B3343A3504020FDF7CEFD464BE358DB070BD452
:404500002700444C01233B514020FDF7C3FD03233B514020FDF7BEFD3F4F37403F4E3E432D4B2C4AD650FA24E40003E0013C0120FDF7B0FD3A4B3B4AD358DB0601D4002C1D
:40454000F4D1002C01D0002400E0374C002C23D12049364A8858082303438B500120FDF7AFFF002801D1324E3E43324B1E4001231E43194B174AD650144E03E0013E01200F
:40458000FDF788FD154B134AD358DB0701D4002EF4D1002E00D1244C002C03D12800FFF7BDFD0400002C0CD168782978FFF7C4FE040006E0204C04E0204C02E01F4C00E090
:4045C0001F4C2000F8BDC04600002640F07E0E006CF0010000003C40A0F00100B4F0010006000001A4F00100A8F0010001000100ACF0010000F03D40C800000800093D002D
:40460000041A0080040A0080AC450008C4F0010030000300B0F00100EFFFFEFF2000020010400000000032400400160068F0010028000200FFFFFBFF010016000300160038
:4046400002001600014B18687047C046C000000810B5002405E02000FDF7E0F9032804D00134042CF7D9002000E0012010BDC046A023DB00064AD35803221340012B03D05E
:40468000032B03D1012002E0012000E00020704700002640002243088B4274D303098B425FD3030A8B4244D3030B8B4228D3030C8B420DD3FF22090212BA030C8B4202D3FF
:4046C0001212090265D0030B8B4219D300E0090AC30B8B4201D3CB03C01A5241830B8B4201D38B03C01A5241430B8B4201D34B03C01A5241030B8B4201D30B03C01A5241F4
:40470000C30A8B4201D3CB02C01A5241830A8B4201D38B02C01A5241430A8B4201D34B02C01A5241030A8B4201D30B02C01A5241CDD2C3098B4201D3CB01C01A5241830908
:404740008B4201D38B01C01A524143098B4201D34B01C01A524103098B4201D30B01C01A5241C3088B4201D3CB00C01A524183088B4201D38B00C01A524143088B4201D31F
:404780004B00C01A5241411A00D20146524110467047FFE701B5002000F0F0F802BDC0460029F7D076E7704703460B437FD4002243088B4274D303098B425FD3030A8B4280
:4047C00044D3030B8B4228D3030C8B420DD3FF22090212BA030C8B4202D31212090265D0030B8B4219D300E0090AC30B8B4201D3CB03C01A5241830B8B4201D38B03C01A08
:404800005241430B8B4201D34B03C01A5241030B8B4201D30B03C01A5241C30A8B4201D3CB02C01A5241830A8B4201D38B02C01A5241430A8B4201D34B02C01A5241030A8C
:404840008B4201D30B02C01A5241CDD2C3098B4201D3CB01C01A524183098B4201D38B01C01A524143098B4201D34B01C01A524103098B4201D30B01C01A5241C3088B424E
:4048800001D3CB00C01A524183088B4201D38B00C01A524143088B4201D34B00C01A5241411A00D201465241104670475DE0CA0F00D04942031000D34042534000229C46A0
:4048C00003098B422DD3030A8B4212D3FC22890112BA030A8B420CD3890192118B4208D3890192118B4204D389013AD0921100E08909C3098B4201D3CB01C01A5241830972
:404900008B4201D38B01C01A524143098B4201D34B01C01A524103098B4201D30B01C01A5241C3088B4201D3CB00C01A524183088B4201D38B00C01A5241D9D243088B4286
:4049400001D34B00C01A5241411A00D20146634652415B10104601D34042002B00D54942704763465B1000D3404201B5002000F005F802BD0029F8D016E770477047C04655
:40498000002B11D1002A0FD1002900D1002802D00021C943081C07B4024802A14018029003BDC046D9FFFFFF03B4684601B5029800F050F8019B9E4602B00CBC7047C046C9
:4049C000F0B54F464646C0B41604360C9946330005042C0C070C150C63437E436F4365431C0CAD1964199C46A64203D980235B02984647446346250CEF191D044B464A433E
:404A000043432D0C240464199918C91920000CBC90469946F0BDC04670B500220C4B04000D0001F05DFA002804D12000290001F0B5F970BD064B00222000290000F05AFE22
:404A400001F0ACF980231B069C466044F1E7C0460000E041F0B54D46564644465F46F0B4924683B004000D0099468B422FD82CD04946504601F05CFA29000600200001F039
:404A800057FA331A9846203B9B4600D574E053465A4693401F005346424693401E00AF4229D826D05B46A41BBD41002B00DA79E0002200230092019301235A46934001939E
:404AC000012342469340009319E08242D0D900220023009201930C9B002B01D01C605D600098019903B03CBC90469946A246AB46F0BDA342D6D90022002300920193434657
:404B0000002BE8D0FB0772081A4346467B080EE0AB4201D1A2420CD8A41A9D41012024196D410021013E24184D41002E06D0AB42EED9013E24196D41002EF8D15B46009851
:404B4000019900196941002B22DB2B005A46D3402A004446E2401C005B461500002B2CDB26009E40330026004746BE403200801A994100900191AEE7424620239B1A52469B
:404B8000DA40414613004A468A4017001F4382E7424620239B1A2A0046469A402300F3401343D5E74246202300219B1A0022009101920122DA40019282E74246202326007C
:404BC0009B1ADE402F00B446974066463B003343C9E7C046F0B556464D4644465F46F0B41D000E034C00CB0F87B0070092468146360B640D98466AD06D4B9C4235D08022F0
:404C0000430F12041343F6001E43C3009946694B00279C460023644402932B0368001B0BED0F51469B46400D009500D178E0604B98426CD05B46DA004B0F802109040B43D3
:404C400013439B465346D9005A4B9C46002360444246201A6A40924601901F430F2F00D9B0E05548BF00C0598746374300D088E0002399460233082700260293CDE743460D
:404C8000B34649460093029B009A9246022B00D0BFE1002153460122002689461A40444B002136030C0D2405360B2643434C1B0526401E437600D2077608164348463100D1
:404CC00007B03CBC90469946A246AB46F0BD330003434FD0002E00D1BCE1300001F00AF903000B3B1C2B00DDADE11D220100D31A08393A008F408E40DA40B9461643304B45
:404D000000279C46002360444442029385E753465A4613432CD1002300219B46023397E70B4320D05B46002B00D19EE1584601F0E1F803000B3B1C2B00DD8FE10200594678
:404D4000083A91408B461D21CB1A5146D9400B0059460B4351469B469140194B9C4660444042002374E7002300219B4601336FE703236DE70023994601330427002602930C
:404D80004BE703230C27029347E70122D51A382D00DCB0E153461A4000210023002689467EE700238026994600223603004B77E7FF07000001FCFFFFF8850010FFFF0F8069
:404DC000F30300005E4500D972E100D16DE1019B4D46013B01930023340002935B461E020B0E1E430B020393330C994633041B0C494620000093FFF74DFC009B37004343B1
:404E00000600494620009846FFF7CAFC2C0C09040C43A04509D9E419731EA74200D95CE1A04500D859E1023EE4194346E41A49462000FFF72FFC0300009A80465343494628
:404E400020009B46FFF7ACFC2A040904120C0A4393450DD94346D219013B974200D93AE1934500D837E102235B429C46D219E0445B46D21A4346360433439B460399180CD0
:404E80000B0C1D00059309045B46090C0C001B041B0C4443049159436B4368431B190D0CEB189C4203D980246402A44660441C0C09041B04090C20185D18824200D2DEE0F4
:404EC00000D1D7E0161A029B9C465D1BAC459B415B42F61AB74200D106E149463000FFF7D9FB009B04004343494630009846FFF757FC2E0C09040E43B04509D9F619631E45
:404F0000B74200D9F3E0B04500D8F0E0023CF6194346F31A494618000293FFF7BBFB009B06004343494602989846FFF739FC2D0409042D0C0D43A84509D9ED19731EAF42ED
:404F400000D9D6E0A84500D8D3E0023EED192404210043463143049E059A3000ED1A0B040C0C1B0C58436643534354439A19030C9B189E4203D980225202944664441A0C98
:404F800000041B04000C14191B18A54250D34DD001231943964A019B94466344002B00DCF3E64A0709D00F220A40042A05D00A1D8A42894149428B4411005A46D20108D5BE
:404FC0005A468C4B1A4093468022D2009446019B6344894A934200DD5BE65A46C908500708435602514601225B058146360B5B0D0A4055E680231B031E4211D05A461A4238
:405000000ED15E461E433603360B2A0089467B4B46E6032B00D1E1E0012BBBD11A40BBE61E433603360B4246744B39E6002BB1D07D194A1EAF4252D91100A542A8D1039A9F
:405040009A42A5D1A6E703003E00283B9E400023994654E600F04EFF203041E603005246283B9A400021934677E6504600F042FF20305EE6029B0026AB4200D323E7039E27
:405080000299B44661448846B045B6415B467642F619B218013B0291974213D290424FD800D18EE0161A9B460DE7894500D28EE674084B46F60735005B081D434B46DB0777
:4050C00002938BE69742EDD10399029CA142E5D93E1A9B46F7E69846CAE61E00A5E6AC423ED874D0110053E70121494252E71C000EE71E002BE71F2D3CDC20230A005846E2
:405100005B1B9840EA4099400243481E81415E461143EE404B0709D00F230B40042B05D00B00191D99429B415B42F61833023CD55346012200211A40002601238946AFE512
:4051400002235B429C46039CE344A446029B63449846A045B6417642F6190293B218B1E603988A1E41008142B6417642F619AD19039161E71F225242D31A5A46DA401300EA
:40518000202D29D040225846551BA8400143481E814107200B4318400026002809D00F2200261A401900042ABBD10B0070077602360BDB0803439946012253461A400023F1
:4051C0006EE502998D42BBD89B4600267BE603989842C5D3110032E70020D7E780265B4636031E433603360B009A8946034B57E5FF030000FFFFFFFEFE070000FF0700008C
:40520000F0B55F4656464D464446F0B40D0399464E002B0B87B00700924680469B46760DCC0F002E69D06D4B9E4235D05B468022DD001204430F13432B439B46C300984667
:40524000674B00279C460023664401934A4615035000D20F53462D0B400D914600D176E05E4A90426CD080225B0F120413435C4AED0094461D4353460022DB006044494659
:405280003618701C6140029017430F2F00D9AFE05448BF00C759BF465B461F4300D088E000239B469846023308270193CEE74946022A6AD0032A00D109E2012A00D0BBE122
:4052C00011400022002300259046CCB200212D030A0D12052D0B1543434A1B0515401D436D00E4076D0825434046290007B03CBC90469946A246AB46F0BD034352D05B4657
:40530000002B00D18AE1584600F0F4FD03000B3B1C2B00DD7BE11D22D31A3A0001005D46DA4008398D4013008F402B439B46B8462E4B00279C46002360444642019385E78C
:4053400052462A432CD100250023022297E752462A4321D0002D00D154E1280000F0CAFD03000B3B1C2B00DD46E11D21CB1A51460200D9405346083A954093400D431B4A98
:40538000944660444042002279E7012400220C40124B0025904699E70025002301226EE703226CE700239B4698460133042701934CE703230C27019348E7002380259846FE
:4053C00000242D03054B81E75D464346019A6FE75D4643462100019A6AE7C046FF07000001FCFFFF38860010FFFF0F80F30300004246120C91461A0C9446424617044A4643
:405400001B041B0C5A43604690464A4642431000039262461C003F0C7A437C4342440192220C9246019A5244904506D98246802040028046C24450460390100C04904846E7
:405440002404240C1204121905922A0C2D042D0C68432C00824648467C4350438146200C8046574357444744BA4503D9802040028046C144380C3F04B84648442404240C73
:4054800001900498A044404404905846000C814658460404200C8246070048465F434C464343604660436446834650464443380C8446E4186444A34203D980235B029C463B
:4054C000E34448463F04230C3F0C2404E419574668436F4384464D46504655434243380C814662444A445B44944503D9802040028446654403983F04834604983F0C8446CB
:40550000E344C345804140428246100484460198674484466744A344BC46A345A4419946D44464428742BF41D4458041E144A04699459B417F424042C8440743120CBA1856
:40554000A045A4415F423B0064422343D71843467D19DB0D6D021D435B465A02059B1A43531E9A415B46DB0D1A4343465B021343EA0107D501225C0813402343EA07029EB4
:4055800013436D08574AB218002A4BDD580709D00F201840042805D0181D98429B415B42ED180300E80104D54F4A15408022D200B2184E48824200DDE7E60124DB086807AA
:4055C00018436D02530580462D0B5B0D0C407DE6802259461203114208D0154206D115432D0398462D0B4C46414B6FE65D4615432D032D0B3E4B69E603005546283B9D409B
:405600000023BCE6504600F075FC2030A8E60300283B9F400023BB46984689E600F06AFC203073E60124A61A382E07DD00220C4000230025904649E6029EA3E71F2E20DCBE
:4056400020222C001800921BF040944093400443581E83411C43F540630709D00F232340042B05D023001C1D9C4292415242AD182B021FD5012400220C40012300259046F6
:4056800024E61F202C004042821AD440202E1CD04022961BB5402B43581E83410720234318400025002809D00F2200251A401C00042AD8D1230068076D022D0B0124DB086A
:4056C000034398460C40002300E60025E3E780220124120315432D0398462D0B0C40044BF4E5C046FF030000FFFFFFFEFE070000FF070000F0B557464E464546E0B40E0043
:405700001100F20F9246C500420F180337037400400A4E0F7F0A3043CF4E17435A00640D520DDB0FC900B24200D1E5E001267340A61AB446534500D1AFE0002E00DC0DE19B
:40574000002A3AD103000B4300D0E4E06B0709D00F232B40042B05D02B1DAB42AD416D427F191D003B0200D488E0BB4B01349C4200D110E13A00B94B51461A40012350079E
:40578000ED08520264050543120B640D0B400021280012030D0D120B64052D0515436208AF4CDB072C401443640064081C4321001CBC90469946A246F0BDA74B9C42C5D0AD
:4057C00080231B0418436346382B00DDFDE01F2B00DD30E1624620239B1A02009A40664690460A009940F24046464B1E99413243114363460200DA40691A8D429B410D00E3
:40580000BA1A5B42D71A3B0235D57A02530A98464346002B00D1C4E0404600F06BFB0300083B1F2B00DDC5E020222900D21A4746D1409F400A009D403A439C4200DDC0E05E
:405840001C1B631C1F2B00DDE4E0202114002800C91AD8408C408D400443DA40681E854117002543002471E7424663461A4300D14CE2674645466B0700D069E701235146BC
:405880007807ED08FA080B40054373498C4238D012036405120B640D79E7002E00DC9AE0002A47D06C4A944200D14FE78022120410436246382A00DC08E10143481E814143
:4058C0000022C9B24919D219A942BF410D007F42BF183A0200D442E15F4A0134944200D14EE101205D4A69083A4028400843D507054357089A4629E706000E4300D017E749
:4059000014E72900114300D1F9E1802109030A431203120B3BE701235B429846C4446346002B72D1691A8D429B413F1A5B42FF1A0D0068E702000A4300D107E701225242DA
:405940009046C4446246002A00D0E6E06918A942B6413F187642F7190D00BAE7002E00D080E0621C5205520D012A00DCF9E06A1A91464D45B6413A1A7642921B90461202B8
:4059800000D499E04D1BA9428941C71B49427A1A90469A463CE752460123002513400022F5E6280000F0A6FA20300300083B1F2B00DC39E72A002838824000259C4200DCB3
:4059C0003EE7264FE41A1740C0E60143481E81410022C9B210E7002E00D0F1E0621C94465205520D012A00DCA0E01B4A944500D1C5E06918A94292413F185242D219490894
:405A0000D5070D4357086446A0E6134B9C4200D0D9E69BE611001F3CE1400C00202B00D180E04021CB1A9A4015436A1E95410027254300241FE763460200203BDA406346F2
:405A4000202B71D0402366469B1B98400143481E814111430022CFE6FF070000FFFF7FFFFFFF0F80002C48D0CA4CA24200D1A2E07442A1468024240427434C46382C00DD20
:405A8000DBE01F2C00DD44E14E462024A41B3E00A640A246B0464C462E00E640B4464646644626435446A5406C1EA54134002C434D46EF400D1B28E04A4643464D461A4339
:405AC00000D0A5E6002300240025DEE61F2A5ADC66462022921B060096409146B04662460E00D640424616434A4691404A1E9141020060463143C240E4E63C002C435AD053
:405B0000F443A146002C52D14D1BA9428941C71B49427F1A14009A4675E69E4A944200D0C7E613E600227FE700208FE7002C00D0C8E03B002B4300D10FE103000B4300D104
:405B400004E66918A9429B413F185B42DF193B0200D41AE1904B0D001F406446F6E59A4689E63A002A43002C5CD1002A75D102000A4300D1CAE007000D009A46E6E564463D
:405B80000022002581E662460600203AD6406246B046202A00D1B7E040226646921B904001434246481E8141114300228AE6794CA24200D061E707000D0014009A46C5E5F1
:405BC000002C41D13C002C4378D0F443A146002C20D0704CA24271D04C46382C00DDB2E01F2C00DDBCE02026341BA2463C005646B4404E46A0462C00F440A44644466646ED
:405C00003443A4465446A54064466E1EB54125434C46E7406D188D4289413F184942CF19140056E6002A2FD102000A4300D184E007000D009A46574C88E53D436F1EBD4142
:405C4000ECB200270D1B60E7524CA24236D0744280263604A1463743BEE702000A4300D174E56A1A90464545B6413A1A7642921B9446120200D4F7E54D1BA9428941C71B22
:405C800049427F1A9A4661E502000A433AD0ED087C072C438025FA082D032A4208D0C7082F4205D145072C003A009A46C9080C43670FD200E5001743364C47E507000D002E
:405CC000140043E53A002A4343D002000A4319D0ED087C072C438025FA082D032A4207D0C6082E4204D147073C003200C9080C43D700620FE50017439A46264C26E5002280
:405D0000002544E5234C21E5002049E700230025BBE54C463E00203CE6404C46B446202C31D040244E46A61BB7403D436C1EA54164462C4300270D1BE7E68022002312038E
:405D4000144C0025A1E53D436F1EBD410027EDB260E707000D000F4CF8E407000D00F5E44E463C00203EF440A0464C46202C0ED040244E46A41BA7403D436F1EBD41444691
:405D80000027254346E70027CFE70D0073E50027F2E7C046FF070000FFFF7FFF0B0330B5134D1A0B4B005B0DC90F0024AB4211DD104CA34210DC8024640322430E4CE41A66
:405DC0001F2C0CDD0D48C31ADA4013005C42002900D11C00200030BD094BCC18FAE7E040084CA44663449A4013000343EEE7C046FE0300001D0400003304000013040000B3
:405E0000FFFFFF7FEDFBFFFF70B5051E28D000F071F8154B154A1B1AD21A1F2A16DD2C00134A0025D21A94405A052403240B520D002124030B0D240B1B0523430D4C120544
:405E4000234013435B002800590870BD0B212C00081AC440954024035A05240B520DE7E700220024E4E7C0461E0400003304000013040000FFFF0F808446101C62468C469F
:405E8000191C634600E0C0461FB500F001F9002801D40021C8421FBD10B500F055F84042013010BD10B500F0F3F8002801DB002010BD012010BDC04610B500F0E9F8002897
:405EC00001DD002010BD012010BDC04610B500F07BF8002801DC002010BD012010BDC04610B500F071F8002801DA002010BD012010BDC0461C2101231B04984201D3000C99
:405F000010391B0A984201D3000A08391B09984201D30009043902A2105C40187047C0460403020201010101000000000000000010B5002903D1FFF7DDFF203002E0081CC4
:405F4000FFF7D8FF10BDC046F0B55F4656464D464446F0B41F035C00DB0F9A46194B0E034D00C90F8046360B6D0D8B4691463F0B640D9D4219D0134B9C421BD00123A5421A
:405F800006D018003CBC90469946A246AB46F0BDBE42F6D1C845F4D1D34510D0002DF0D1304303005A1E9341EBE7310001230143E7D1E0E73A430123002AE2D1DEE700232F
:405FC000DFE7C046FF070000F0B55F46444656464D46F0B41F033C0B2C4F0E034D00A3465C008446360B6D0DC90F9046640DDB0FBD422BD0254FBC422ED0002D0ED130432A
:406000000700814678427841002C17D15F463A4314D14B460020002B0AD006E0002C02D15846024301D099421AD00123484218433CBC90469946A246AB46F0BD0028F2D0CA
:4060400058425841012240421043F1E737000743D0D002204042EBE75F461743CDD0F8E7A542E2DC05DB5E45DFD808D000205E45DED248424841012340421843D8E7C44505
:40608000D3D80020C445F4D3D2E7C046FF070000F0B55F464D4644465646F0B41C03240BA4462F4C0F034D005E00C90F80463F0B6D0D8B469146760DDB0FA54220D0284CA7
:4060C000A64222D0002D12D1384344424441002E20D0002C0DD05C42634101245B421C4320003CBC90469946A246AB46F0BD002E17D05B4519D05B465C4201231C43EFE71D
:40610000390002240143EBD1D9E7614602241143E6D1D7E761460A43DBD100240028DFD0E9E761460A43E4D1E5E7B54203DD01225C421443D4E7B542CDDB6745DBD809D049
:4061400000246745CCD259464C426141012449420C43C5E7C845CED80024C845F3D3BFE7FF07000030B50024A24208D0035D651C0C5DA34201D0181B02E02C00F4E70020E0
:4061800030BD002310B59A4203D0CC5CC4540133F9E710BD03008218934202D019700133FAE770470023C25C0133002AFBD1581E7047030030B5002A0DD00C7801335D1EE7
:4061C000013A2C700131002CF5D19A189A4202D01C700133FAE730BDF8B5C046F8BC08BC9E467047F8B5C046F8BC08BC9E46704701B40248844601BC604700BFA908000885
:40620000030000000100000001000000000000000503600004000000010000000000000001000000060460000800000024350008B501001073797374656D5F70736F633663
:406240005F636D30706C75732E63000057726F6F6D2100000300180001000000F4010000140004010A00090508000000630100000020344074008020344074000022344061
:406280007400802234407400002434407400802434407400002634407400802634407400002834407400802834407400002A34407400802A344074000021344070640010EF
:4062C0009000000000233440006500109000000000253440906500109000000000273440206600109000000000293440B066001090000000002B344040670010900000004A
:4063000000603440D06700107C000000806034404C6800107C00000000613440C86800107C00000080613440446900107C00000000623440C06900107C0000008062344032
:406340003C6A00107C00000000633440B86A00107C00000080633440346B00107C00000000643440B06B00107C000000806434402C6C00107C00000000653440A86C0010EC
:406380007C00000080653440246D00107C0000002C510000017034402000000000000000000000000000600000000000000000000000000000000000000300000300000003
:4063C0000000000000000000680000000000000000000000000000001212000000000000180000000000000000000000006006BA00000000000000000000000000000000D9
:4064000014001D1D030000000000000000000000CC00000000000000000000000000000013130000000000000500000000000000000000000800000000000000000000000C
:40644000000000001200000000000000400000000000000000000000000000860000000000000000000000000000000000000800000000000000000000000000FFFFFFFF40
:40648000FFFFFFFFFFFFFFFFFFFFFFFFFFFFFFFFFF000000FFFFFFFFFFFFFFFFFFFFFFFFFFFFFFFFFFFFFFFFFF000000000000000000000000000000000000000000000002
:4064C00000000000FFFFFFFFFFFFFFFFFFFFFFFF11111111111111111111111111111111111111111111111111111111111111111111111111111111111111111111111178
:40650000000000000000000000000000FFFFFFFFFFFFFFFFFFFFFFFFFFFFFFFFFFFFFFFFFF000000FFFFFFFFFFFFFFFFFFFFFFFFFFFFFFFFFFFFFFFFFF0000000000000085
:406540000000000000000000000000000000000000000000FFFFFFFFFFFFFFFFFFFFFFFF111111111111111111111111111111111111111111111111111111111111111107
:4065800011111111111111111111111111111111000000000000000000000000FFFFFFFFFFFFFFFFFFFFFFFFFFFFFFFFFFFFFFFFFF000000FFFFFFFFFFFFFFFFFFFFFFFFEC
:4065C000FFFFFFFFFFFFFFFFFF000000000000000000000000000000000000000000000000000000FFFFFFFFFFFFFFFFFFFFFFFF11111111111111111111111111111111A0
:406600001111111111111111111111111111111111111111111111111111111111111111000000000000000000000000FFFFFFFFFFFFFFFFFFFFFFFFFFFFFFFFFFFFFFFF4E
:40664000FF000000FFFFFFFFFFFFFFFFFFFFFFFFFFFFFFFFFFFFFFFFFF000000000000000000000000000000000000000000000000000000FFFFFFFFFFFFFFFFFFFFFFFF3C
:40668000111111111111111111111111111111111111111111111111111111111111111111111111111111111111111111111111000000000000000000000000FFFFFFFFAE
:4066C000FFFFFFFFFFFFFFFFFFFFFFFFFFFFFFFFFF000000FFFFFFFFFFFFFFFFFFFFFFFFFFFFFFFFFFFFFFFFFF0000000000000000000000000000000000000000000000C0
:4067000000000000FFFFFFFFFFFFFFFFFFFFFFFF11111111111111111111111111111111111111111111111111111111111111111111111111111111111111111111111135
:40674000000000000000000000000000FFFFFFFFFFFFFFFFFFFFFFFFFFFFFFFFFFFFFFFFFF000000FFFFFFFFFFFFFFFFFFFFFFFFFFFFFFFFFFFFFFFFFF0000000000000043
:406780000000000000000000000000000000000000000000FFFFFFFFFFFFFFFFFFFFFFFF1111111111111111111111111111111111111111111111111111111111111111C5
:4067C0001111111111111111111111111111111100000000000000001F1F1F1F1F1F1F1F1F1F1F1F1F1F1F1F1F1F1F1F0E1F1F1F1F1F1F1F1F1F1F1F0000000000000000BA
:4068000000000000000000000000000000000000FFFFFFFFFFFFFFFFFFFFFFFF11111111111111111111111111111111111111111111111111111111111111111111111100
:4068400041111111111111111111111100000000000000001F1F1F1F1F1F1F1F1F1F1F1F1F1F1F1F1F1F1F1F1F1F1F1F1F1F1F1F1F1F1F1F0000000000000000000000003C
:40688000000000000000000000000000FFFFFFFFFFFFFFFFFFFFFFFF111111111111111111111111111111111111111111111111111111111111111111111111111111113C
:4068C000111111111111111100000000000000001F1F1F1F1F1F1F1F1F1F1F1F1F1F1F1F1F1F1F1F1F1F1F1F1F1F1F1F1F1F1F1F0000000000000000000000000000000030
:406900000000000000000000FFFFFFFFFFFFFFFFFFFFFFFF111111111111111111111111111111111111111111111111111111111111111111111111111111111111111177
:406940001111111100000000000000001F1F1F1F1F1F1F1F1F1F1F1F1F1F1F1F1F1F1F1F1F1F1F1F1F1F1F1F1F1F1F1F0000000000000000000000000000000000000000F3
:4069800000000000FFFFFFFFFFFFFFFFFFFFFFFF111111111111111111111111111111111111111111111111111111111111111111111111111111111111111111111111B3
:4069C00000000000000000001F1F1F1F1F1F1F1F1F1F1F1F1F1F1F1F1F1F1F1F1F1F1F1F1F1F1F1F1F1F1F1F000000000000000000000000000000000000000000000000B7
:406A0000FFFFFFFFFFFFFFFFFFFFFFFF1111111111111111111111111111111111111111111111111111111111111111111111111111111111111111111111110000000032
:406A4000000000001F1F1F1F1F1F1F1F1F1F1F1F1F1F1F1F1F1F1F1F1F1F1F1F1F1F1F1F1F1F1F1F000000000000000000000000000000000000000000000000FFFFFFFF3A
:406A8000FFFFFFFFFFFFFFFF1111111111111111111111111111111111111111111111111111111111111111111111111111111111111111111111110000000000000000AE
:406AC0001F1F1F1F1F1F1F1F1F1F1F1F1F1F1F1F1F1F1F1F1F1F1F1F1F1F1F1F1F1F1F1F000000000000000000000000000000000000000000000000FFFFFFFFFFFFFFFFBE
:406B0000FFFFFFFF11111111111111111111111111111111111111111111111111111111111111111111111111111111111111111111111100000000000000001F1F1F1FAD
:406B40001F1F1F1F0A1F1F1F1F1F1F1F1F1F1F1F1F1F1F1F1F1F1F1F1F1F1F1F000000000000000000000000000000000000000000000000FFFFFFFFFFFFFFFFFFFFFFFFD2
:406B800011111111111111111111111111111111111111111111111111111111111111111111111111111111111111111111111100000000000000001F1F1F1F1F1F1F1FAD
:406BC0001F1F1F1F1F1F1F1F1F1F1F1F1F1F1F1F1F1F1F1F1F1F1F1F000000000000000000000000000000000000000000000000FFFFFFFFFFFFFFFFFFFFFFFF1111111175
:406C0000111111111111111111111111111111111111111111111111111111111111111111111111111111111111111100000000000000001F1F1F1F1F1F1F1F1F1F1F1FF4
:406C40001F1F1F1F1F1F1F1F1F1F1F1F1F1F1F1F1F1F1F1F000000000000000000000000000000000000000000000000FFFFFFFFFFFFFFFFFFFFFFFF11111111111111112C
:406C80001111111111111111111111111111111111111111111111111111111111111111111111111111111100000000000000001F1F1F1F1F1F1F1F1F1F1F1F1F1F1F1F3C
:406CC0001F1F1F1F1F1F1F1F1F1F1F1F1F1F1F1F000000000000000000000000000000000000000000000000FFFFFFFFFFFFFFFFFFFFFFFF111111111111111111111111E4
:406D000011111111111111111111111111111111111111111111111111111111111111111111111100000000000000001F1F1F1F1F1F1F1F1F1F1F1F1F1F1F1F1F1F1F1F83
:406D40001F1F1F1F1F1F1F1F1F1F1F1F000000000000000000000000000000000000000000000000FFFFFFFFFFFFFFFFFFFFFFFF111111111111111111111111111111119B
:406D80001111111111111111111111111111111111111111111111111111111111111111000000000000150001000028010000000B00000000180000000000000200032824
:406DC0000100020003000000002A0000000000000300002A01000201030000000500000080020008040003280100020005000000012A0000000000000500012A010002010A
:406E0000050000000200000088020008060003280100020007000000042A0000000000000700042A010002010700000008000000900200080800032801000200090000002F
:406E4000A62A0000000000000900A62A010002010900000001000000980200080A000328010002000B000000C92A0000000000000B00C92A010002010B0000000100000075
:406E8000A00200080C000028010000000F00000001180000000000000D000328010020000F000000052A0000000000000E00052A000020010F00000004000000A802000811
:406EC0000F00022901010A030F00000002000000B002000810000028010000081500000010000000B802000811000328010008001200000010000000C00200081200020011
:406F00000001080912000000C8000000C802000813000328010010001500000010000000D0020008140003000000100915000000C8000000D80200081500022901010A0307
:406F40001500000002000000E00200089ECADC240EE5A9E093F3A3B50100406E9ECADC240EE5A9E093F3A3B50200406E9ECADC240EE5A9E093F3A3B50300406E01000300B6
:406F80000500070009000B000C000E000F00000010001200000014001500000047656E6572617465645F536F757263655C50536F43365C70646C5C647269766572732F7061
:406FC00065726970686572616C2F6970632F63795F6970635F6472762E68000047656E6572617465645F536F757263655C50536F43365C70646C5C647269766572735C707A
:4070000065726970686572616C5C6770696F5C63795F6770696F2E630000000047656E6572617465645F536F757263655C50536F43365C70646C5C647269766572735C70A9
:4070400065726970686572616C5C6770696F5C63795F6770696F2E680000000047656E6572617465645F536F757263655C50536F43365C70646C5C647269766572735C7064
:4070800065726970686572616C5C6970635C63795F6970635F6472762E68000047656E6572617465645F536F757263655C50536F43365C70646C5C647269766572735C705F
:4070C00065726970686572616C5C6970635C63795F6970635F6472762E63000047656E6572617465645F536F757263655C50536F43365C70646C5C647269766572735C7024
:4071000065726970686572616C5C6970635C63795F6970635F706970652E630047656E6572617465645F536F757263655C50536F43365C70646C5C647269766572735C7081
:4071400065726970686572616C5C70726F745C63795F70726F742E630000000047656E6572617465645F536F757263655C50536F43365C70646C5C647269766572735C703C
:4071800065726970686572616C5C737973636C6B5C63795F737973636C6B2E630000000047656E6572617465645F536F757263655C50536F43365C70646C5C647269766505
:4071C00072735C7065726970686572616C5C737973636C6B5C63795F737973636C6B2E680000000047656E6572617465645F536F757263655C50536F43365C70646C5C64C5
:407200007269766572735C7065726970686572616C5C737973696E745C63795F737973696E742E630000000047656E6572617465645F536F757263655C50536F43365C7041
